{
  "contractName": "Auction",
  "abi": [
    {
      "inputs": [
        {
          "internalType": "uint256",
          "name": "_bidIncrement",
          "type": "uint256"
        },
        {
          "internalType": "address",
          "name": "_payTo",
          "type": "address"
        },
        {
          "internalType": "address",
          "name": "_operator",
          "type": "address"
        }
      ],
      "stateMutability": "nonpayable",
      "type": "constructor"
    },
    {
      "anonymous": false,
      "inputs": [
        {
          "indexed": false,
          "internalType": "address",
          "name": "bidder",
          "type": "address"
        },
        {
          "indexed": false,
          "internalType": "uint256",
          "name": "bid",
          "type": "uint256"
        },
        {
          "indexed": false,
          "internalType": "address",
          "name": "highestBidder",
          "type": "address"
        },
        {
          "indexed": false,
          "internalType": "uint256",
          "name": "highestBid",
          "type": "uint256"
        },
        {
          "indexed": false,
          "internalType": "uint256",
          "name": "highestBindingBid",
          "type": "uint256"
        }
      ],
      "name": "logBid",
      "type": "event"
    },
    {
      "anonymous": false,
      "inputs": [
        {
          "indexed": false,
          "internalType": "enum Auction.State",
          "name": "state",
          "type": "uint8"
        }
      ],
      "name": "stateChanged",
      "type": "event"
    },
    {
      "inputs": [],
      "name": "bidIncrement",
      "outputs": [
        {
          "internalType": "uint256",
          "name": "",
          "type": "uint256"
        }
      ],
      "stateMutability": "view",
      "type": "function"
    },
    {
      "inputs": [
        {
          "internalType": "address",
          "name": "",
          "type": "address"
        }
      ],
      "name": "fundsByBidder",
      "outputs": [
        {
          "internalType": "uint256",
          "name": "",
          "type": "uint256"
        }
      ],
      "stateMutability": "view",
      "type": "function"
    },
    {
      "inputs": [],
      "name": "highestBidder",
      "outputs": [
        {
          "internalType": "address",
          "name": "",
          "type": "address"
        }
      ],
      "stateMutability": "view",
      "type": "function"
    },
    {
      "inputs": [],
      "name": "highestBindingBid",
      "outputs": [
        {
          "internalType": "uint256",
          "name": "",
          "type": "uint256"
        }
      ],
      "stateMutability": "view",
      "type": "function"
    },
    {
      "inputs": [],
      "name": "operator",
      "outputs": [
        {
          "internalType": "address",
          "name": "",
          "type": "address"
        }
      ],
      "stateMutability": "view",
      "type": "function"
    },
    {
      "inputs": [],
      "name": "ownerHasWithdrawn",
      "outputs": [
        {
          "internalType": "bool",
          "name": "",
          "type": "bool"
        }
      ],
      "stateMutability": "view",
      "type": "function"
    },
    {
      "inputs": [],
      "name": "seller",
      "outputs": [
        {
          "internalType": "address",
          "name": "",
          "type": "address"
        }
      ],
      "stateMutability": "view",
      "type": "function"
    },
    {
      "inputs": [],
      "name": "state",
      "outputs": [
        {
          "internalType": "enum Auction.State",
          "name": "",
          "type": "uint8"
        }
      ],
      "stateMutability": "view",
      "type": "function"
    },
    {
      "inputs": [],
      "name": "tokenId",
      "outputs": [
        {
          "internalType": "uint256",
          "name": "",
          "type": "uint256"
        }
      ],
      "stateMutability": "view",
      "type": "function"
    },
    {
      "inputs": [
        {
          "internalType": "address",
          "name": "operator",
          "type": "address"
        },
        {
          "internalType": "address",
          "name": "from",
          "type": "address"
        },
        {
          "internalType": "uint256",
          "name": "_tokenId",
          "type": "uint256"
        },
        {
          "internalType": "bytes",
          "name": "data",
          "type": "bytes"
        }
      ],
      "name": "onERC721Received",
      "outputs": [
        {
          "internalType": "bytes4",
          "name": "",
          "type": "bytes4"
        }
      ],
      "stateMutability": "nonpayable",
      "type": "function"
    },
    {
      "inputs": [
        {
          "internalType": "address",
          "name": "_NFTAddress",
          "type": "address"
        },
        {
          "internalType": "uint256",
          "name": "_TokenID",
          "type": "uint256"
        }
      ],
      "name": "depositNFT",
      "outputs": [],
      "stateMutability": "nonpayable",
      "type": "function"
    },
    {
      "inputs": [],
      "name": "getHighestBid",
      "outputs": [
        {
          "internalType": "uint256",
          "name": "",
          "type": "uint256"
        }
      ],
      "stateMutability": "view",
      "type": "function"
    },
    {
      "inputs": [],
      "name": "placeBid",
      "outputs": [
        {
          "internalType": "bool",
          "name": "success",
          "type": "bool"
        }
      ],
      "stateMutability": "payable",
      "type": "function"
    },
    {
      "inputs": [],
      "name": "cancelAuction",
      "outputs": [
        {
          "internalType": "bool",
          "name": "success",
          "type": "bool"
        }
      ],
      "stateMutability": "nonpayable",
      "type": "function"
    },
    {
      "inputs": [],
      "name": "withdraw",
      "outputs": [
        {
          "internalType": "bool",
          "name": "success",
          "type": "bool"
        }
      ],
      "stateMutability": "nonpayable",
      "type": "function"
    },
    {
      "inputs": [
        {
          "internalType": "uint256",
          "name": "withdrawalAmount",
          "type": "uint256"
        }
      ],
      "name": "payoutToSeller",
      "outputs": [],
      "stateMutability": "nonpayable",
      "type": "function"
    }
  ],
  "bytecode": "0x60806040523480156200001157600080fd5b5060405162001a5f38038062001a5f83398181016040528101906200003791906200016d565b816000806101000a81548173ffffffffffffffffffffffffffffffffffffffff021916908373ffffffffffffffffffffffffffffffffffffffff16021790555080600460006101000a81548173ffffffffffffffffffffffffffffffffffffffff021916908373ffffffffffffffffffffffffffffffffffffffff16021790555082600181905550505050620001c9565b600080fd5b6000819050919050565b620000e281620000cd565b8114620000ee57600080fd5b50565b6000815190506200010281620000d7565b92915050565b600073ffffffffffffffffffffffffffffffffffffffff82169050919050565b6000620001358262000108565b9050919050565b620001478162000128565b81146200015357600080fd5b50565b60008151905062000167816200013c565b92915050565b600080600060608486031215620001895762000188620000c8565b5b60006200019986828701620000f1565b9350506020620001ac8682870162000156565b9250506040620001bf8682870162000156565b9150509250925092565b61188680620001d96000396000f3fe6080604052600436106100f35760003560e01c806391f901571161008a578063c83dc3a311610059578063c83dc3a31461030c578063ce10cf8014610335578063ecfc7ecc14610372578063f5b56c5614610390576100f3565b806391f90157146102625780639b5b9b181461028d578063b3cc167a146102b6578063c19d93fb146102e1576100f3565b80633ccfd60b116100c65780633ccfd60b146101b65780634979440a146101e1578063570ca7351461020c5780638fa8b79014610237576100f3565b806308551a53146100f8578063150b7a021461012357806317d70f7c146101605780631bf822e51461018b575b600080fd5b34801561010457600080fd5b5061010d6103bb565b60405161011a91906112cb565b60405180910390f35b34801561012f57600080fd5b5061014a600480360381019061014591906113b7565b6103df565b604051610157919061147a565b60405180910390f35b34801561016c57600080fd5b506101756103f4565b60405161018291906114a4565b60405180910390f35b34801561019757600080fd5b506101a06103fa565b6040516101ad91906114da565b60405180910390f35b3480156101c257600080fd5b506101cb61040d565b6040516101d891906114da565b60405180910390f35b3480156101ed57600080fd5b506101f6610938565b60405161020391906114a4565b60405180910390f35b34801561021857600080fd5b506102216109a1565b60405161022e91906112cb565b60405180910390f35b34801561024357600080fd5b5061024c6109c7565b60405161025991906114da565b60405180910390f35b34801561026e57600080fd5b50610277610adb565b60405161028491906112cb565b60405180910390f35b34801561029957600080fd5b506102b460048036038101906102af91906114f5565b610b01565b005b3480156102c257600080fd5b506102cb610cab565b6040516102d891906114a4565b60405180910390f35b3480156102ed57600080fd5b506102f6610cb1565b60405161030391906115ac565b60405180910390f35b34801561031857600080fd5b50610333600480360381019061032e91906115c7565b610cc4565b005b34801561034157600080fd5b5061035c600480360381019061035791906115f4565b610efe565b60405161036991906114a4565b60405180910390f35b61037a610f16565b60405161038791906114da565b60405180910390f35b34801561039c57600080fd5b506103a56111b9565b6040516103b291906114a4565b60405180910390f35b60008054906101000a900473ffffffffffffffffffffffffffffffffffffffff1681565b600063150b7a0260e01b905095945050505050565b60025481565b600860009054906101000a900460ff1681565b6000806000806000905060028081111561042a57610429611535565b5b600460149054906101000a900460ff16600281111561044c5761044b611535565b5b141561049c57339250600760008473ffffffffffffffffffffffffffffffffffffffff1673ffffffffffffffffffffffffffffffffffffffff168152602001908152602001600020549150610883565b60008054906101000a900473ffffffffffffffffffffffffffffffffffffffff1673ffffffffffffffffffffffffffffffffffffffff163373ffffffffffffffffffffffffffffffffffffffff1614806105435750600460009054906101000a900473ffffffffffffffffffffffffffffffffffffffff1673ffffffffffffffffffffffffffffffffffffffff163373ffffffffffffffffffffffffffffffffffffffff16145b156106cc57600660009054906101000a900473ffffffffffffffffffffffffffffffffffffffff16925060055491506001600860006101000a81548160ff021916908315150217905550600190506001600460146101000a81548160ff021916908360028111156105b7576105b6611535565b5b02179055507f60a4a1bc10ae890f497872511943e85041b8c9f7f80b041024eb3b0b6b129378600460149054906101000a900460ff166040516105fa91906115ac565b60405180910390a161060b82610cc4565b600360009054906101000a900473ffffffffffffffffffffffffffffffffffffffff1673ffffffffffffffffffffffffffffffffffffffff166342842e0e30600660009054906101000a900473ffffffffffffffffffffffffffffffffffffffff166002546040518463ffffffff1660e01b815260040161068e93929190611621565b600060405180830381600087803b1580156106a857600080fd5b505af11580156106bc573d6000803e3d6000fd5b5050505060019350505050610935565b600660009054906101000a900473ffffffffffffffffffffffffffffffffffffffff1673ffffffffffffffffffffffffffffffffffffffff163373ffffffffffffffffffffffffffffffffffffffff16141561083c57600660009054906101000a900473ffffffffffffffffffffffffffffffffffffffff169250600860009054906101000a900460ff16156107c55760076000600660009054906101000a900473ffffffffffffffffffffffffffffffffffffffff1673ffffffffffffffffffffffffffffffffffffffff1673ffffffffffffffffffffffffffffffffffffffff168152602001908152602001600020549150610837565b60055460076000600660009054906101000a900473ffffffffffffffffffffffffffffffffffffffff1673ffffffffffffffffffffffffffffffffffffffff1673ffffffffffffffffffffffffffffffffffffffff168152602001908152602001600020546108349190611687565b91505b610882565b339250600760008473ffffffffffffffffffffffffffffffffffffffff1673ffffffffffffffffffffffffffffffffffffffff1681526020019081526020016000205491505b5b6000821161089057600080fd5b81600760008573ffffffffffffffffffffffffffffffffffffffff1673ffffffffffffffffffffffffffffffffffffffff16815260200190815260200160002060008282546108df9190611687565b925050819055508273ffffffffffffffffffffffffffffffffffffffff166108fc839081150290604051600060405180830381858888f1935050505015801561092c573d6000803e3d6000fd5b50600193505050505b90565b600060076000600660009054906101000a900473ffffffffffffffffffffffffffffffffffffffff1673ffffffffffffffffffffffffffffffffffffffff1673ffffffffffffffffffffffffffffffffffffffff16815260200190815260200160002054905090565b600460009054906101000a900473ffffffffffffffffffffffffffffffffffffffff1681565b6000600460009054906101000a900473ffffffffffffffffffffffffffffffffffffffff1673ffffffffffffffffffffffffffffffffffffffff163373ffffffffffffffffffffffffffffffffffffffff1614610a2357600080fd5b600280811115610a3657610a35611535565b5b600460149054906101000a900460ff166002811115610a5857610a57611535565b5b1415610a6357600080fd5b6002600460146101000a81548160ff02191690836002811115610a8957610a88611535565b5b02179055507f60a4a1bc10ae890f497872511943e85041b8c9f7f80b041024eb3b0b6b129378600460149054906101000a900460ff16604051610acc91906115ac565b60405180910390a16001905090565b600660009054906101000a900473ffffffffffffffffffffffffffffffffffffffff1681565b600460009054906101000a900473ffffffffffffffffffffffffffffffffffffffff1673ffffffffffffffffffffffffffffffffffffffff163373ffffffffffffffffffffffffffffffffffffffff1614610b5b57600080fd5b81600360006101000a81548173ffffffffffffffffffffffffffffffffffffffff021916908373ffffffffffffffffffffffffffffffffffffffff16021790555080600281905550600360009054906101000a900473ffffffffffffffffffffffffffffffffffffffff1673ffffffffffffffffffffffffffffffffffffffff166342842e0e33306002546040518463ffffffff1660e01b8152600401610c0493929190611621565b600060405180830381600087803b158015610c1e57600080fd5b505af1158015610c32573d6000803e3d6000fd5b505050506000600460146101000a81548160ff02191690836002811115610c5c57610c5b611535565b5b02179055507f60a4a1bc10ae890f497872511943e85041b8c9f7f80b041024eb3b0b6b129378600460149054906101000a900460ff16604051610c9f91906115ac565b60405180910390a15050565b60015481565b600460149054906101000a900460ff1681565b600460009054906101000a900473ffffffffffffffffffffffffffffffffffffffff1673ffffffffffffffffffffffffffffffffffffffff163373ffffffffffffffffffffffffffffffffffffffff1614610d1e57600080fd5b610d266111bf565b15610e9357600080600360009054906101000a900473ffffffffffffffffffffffffffffffffffffffff1673ffffffffffffffffffffffffffffffffffffffff16632a55205a6002546005546040518363ffffffff1660e01b8152600401610d8f9291906116bb565b6040805180830381865afa158015610dab573d6000803e3d6000fd5b505050506040513d601f19601f82011682018060405250810190610dcf919061170e565b915091508173ffffffffffffffffffffffffffffffffffffffff166108fc829081150290604051600060405180830381858888f19350505050158015610e19573d6000803e3d6000fd5b5060008054906101000a900473ffffffffffffffffffffffffffffffffffffffff1673ffffffffffffffffffffffffffffffffffffffff166108fc8285610e609190611687565b9081150290604051600060405180830381858888f19350505050158015610e8b573d6000803e3d6000fd5b505050610efb565b60008054906101000a900473ffffffffffffffffffffffffffffffffffffffff1673ffffffffffffffffffffffffffffffffffffffff166108fc829081150290604051600060405180830381858888f19350505050158015610ef9573d6000803e3d6000fd5b505b50565b60076020528060005260406000206000915090505481565b6000600280811115610f2b57610f2a611535565b5b600460149054906101000a900460ff166002811115610f4d57610f4c611535565b5b1415610f5857600080fd5b60003411610f6557600080fd5b600034600760003373ffffffffffffffffffffffffffffffffffffffff1673ffffffffffffffffffffffffffffffffffffffff16815260200190815260200160002054610fb2919061174e565b90506005548111610fc257600080fd5b600060076000600660009054906101000a900473ffffffffffffffffffffffffffffffffffffffff1673ffffffffffffffffffffffffffffffffffffffff1673ffffffffffffffffffffffffffffffffffffffff16815260200190815260200160002054905081600760003373ffffffffffffffffffffffffffffffffffffffff1673ffffffffffffffffffffffffffffffffffffffff168152602001908152602001600020819055508082116110955761108a60015483611084919061174e565b8261126e565b60058190555061114d565b600660009054906101000a900473ffffffffffffffffffffffffffffffffffffffff1673ffffffffffffffffffffffffffffffffffffffff163373ffffffffffffffffffffffffffffffffffffffff16146111495733600660006101000a81548173ffffffffffffffffffffffffffffffffffffffff021916908373ffffffffffffffffffffffffffffffffffffffff160217905550611142826001548361113d919061174e565b61126e565b6005819055505b8190505b7f5c2b30b69878d1af2170dc75703de7e57d884d9a187d4aad26b10701f3236d1d3383600660009054906101000a900473ffffffffffffffffffffffffffffffffffffffff16846005546040516111a89594939291906117a4565b60405180910390a160019250505090565b60055481565b600080600360009054906101000a900473ffffffffffffffffffffffffffffffffffffffff1673ffffffffffffffffffffffffffffffffffffffff166301ffc9a7632a55205a60e01b6040518263ffffffff1660e01b8152600401611224919061147a565b602060405180830381865afa158015611241573d6000803e3d6000fd5b505050506040513d601f19601f820116820180604052508101906112659190611823565b90508091505090565b60008183101561128057829050611284565b8190505b92915050565b600073ffffffffffffffffffffffffffffffffffffffff82169050919050565b60006112b58261128a565b9050919050565b6112c5816112aa565b82525050565b60006020820190506112e060008301846112bc565b92915050565b600080fd5b600080fd5b6112f9816112aa565b811461130457600080fd5b50565b600081359050611316816112f0565b92915050565b6000819050919050565b61132f8161131c565b811461133a57600080fd5b50565b60008135905061134c81611326565b92915050565b600080fd5b600080fd5b600080fd5b60008083601f84011261137757611376611352565b5b8235905067ffffffffffffffff81111561139457611393611357565b5b6020830191508360018202830111156113b0576113af61135c565b5b9250929050565b6000806000806000608086880312156113d3576113d26112e6565b5b60006113e188828901611307565b95505060206113f288828901611307565b94505060406114038882890161133d565b935050606086013567ffffffffffffffff811115611424576114236112eb565b5b61143088828901611361565b92509250509295509295909350565b60007fffffffff0000000000000000000000000000000000000000000000000000000082169050919050565b6114748161143f565b82525050565b600060208201905061148f600083018461146b565b92915050565b61149e8161131c565b82525050565b60006020820190506114b96000830184611495565b92915050565b60008115159050919050565b6114d4816114bf565b82525050565b60006020820190506114ef60008301846114cb565b92915050565b6000806040838503121561150c5761150b6112e6565b5b600061151a85828601611307565b925050602061152b8582860161133d565b9150509250929050565b7f4e487b7100000000000000000000000000000000000000000000000000000000600052602160045260246000fd5b6003811061157557611574611535565b5b50565b600081905061158682611564565b919050565b600061159682611578565b9050919050565b6115a68161158b565b82525050565b60006020820190506115c1600083018461159d565b92915050565b6000602082840312156115dd576115dc6112e6565b5b60006115eb8482850161133d565b91505092915050565b60006020828403121561160a576116096112e6565b5b600061161884828501611307565b91505092915050565b600060608201905061163660008301866112bc565b61164360208301856112bc565b6116506040830184611495565b949350505050565b7f4e487b7100000000000000000000000000000000000000000000000000000000600052601160045260246000fd5b60006116928261131c565b915061169d8361131c565b9250828210156116b0576116af611658565b5b828203905092915050565b60006040820190506116d06000830185611495565b6116dd6020830184611495565b9392505050565b6000815190506116f3816112f0565b92915050565b60008151905061170881611326565b92915050565b60008060408385031215611725576117246112e6565b5b6000611733858286016116e4565b9250506020611744858286016116f9565b9150509250929050565b60006117598261131c565b91506117648361131c565b9250827fffffffffffffffffffffffffffffffffffffffffffffffffffffffffffffffff0382111561179957611798611658565b5b828201905092915050565b600060a0820190506117b960008301886112bc565b6117c66020830187611495565b6117d360408301866112bc565b6117e06060830185611495565b6117ed6080830184611495565b9695505050505050565b611800816114bf565b811461180b57600080fd5b50565b60008151905061181d816117f7565b92915050565b600060208284031215611839576118386112e6565b5b60006118478482850161180e565b9150509291505056fea26469706673582212209684e802bb24a98e40b074eb991f12970de9ac1d215e98f462af24341b9c222e64736f6c634300080a0033",
  "immutableReferences": {},
  "source": "//SPDX-License-Identifier: MIT\r\n\r\npragma solidity ^0.8.10;\r\n\r\nimport \"@openzeppelin/contracts/token/ERC721/IERC721Receiver.sol\";\r\nimport \"@openzeppelin/contracts/token/ERC721/ERC721.sol\";\r\n\r\nimport \"./Interfaces/IERC2981Royalties.sol\";\r\n\r\ncontract Auction is IERC721Receiver{\r\n     \r\n      enum State {\r\n        ACTIVE, SOLD, CANCELLED\r\n    }\r\n    \r\n    // static\r\n    address public seller;\r\n    uint256 public bidIncrement;\r\n    uint256 public tokenId;\r\n    address private nftAddress;\r\n    address public operator;\r\n\r\n    // state\r\n    State public state;\r\n    uint256 public highestBindingBid;\r\n    address public highestBidder;\r\n    mapping(address => uint256) public fundsByBidder;\r\n    bool public ownerHasWithdrawn;\r\n\r\n    // constants\r\n    bytes4 private constant _INTERFACE_ID_ERC2981 = 0x2a55205a;\r\n\r\n    event logBid(\r\n        address bidder,\r\n        uint256 bid,\r\n        address highestBidder,\r\n        uint256 highestBid,\r\n        uint256 highestBindingBid);\r\n    \r\n    event stateChanged(State state);\r\n     \r\n    constructor(uint256 _bidIncrement, address _payTo, address _operator) {\r\n        seller = _payTo;\r\n        operator = _operator;\r\n        bidIncrement = _bidIncrement;\r\n    }\r\n\r\n    function onERC721Received(address operator, address from, uint256 _tokenId, bytes calldata data ) public override returns (bytes4) {\r\n        return this.onERC721Received.selector;\r\n    }\r\n\r\n    function depositNFT(address _NFTAddress, uint256 _TokenID) public onlyOperator {\r\n        nftAddress = _NFTAddress;\r\n        tokenId = _TokenID;\r\n        ERC721(nftAddress).safeTransferFrom(msg.sender, address(this), tokenId);\r\n        state = State.ACTIVE;\r\n        emit stateChanged(state);\r\n    }\r\n\r\n    function getHighestBid() public view returns (uint256) {\r\n        return fundsByBidder[highestBidder];\r\n    }\r\n\r\n    function placeBid()\r\n        public\r\n        payable\r\n        onlyNotCanceled\r\n        returns (bool success) {\r\n        // reject payments of 0 ETH\r\n        require(msg.value > 0);\r\n\r\n        // calculate the user's total bid based on the current amount they've sent to the contract\r\n        // plus whatever has been sent with this transaction\r\n        uint256 newBid = fundsByBidder[msg.sender] + msg.value;\r\n\r\n        // if the user isn't even willing to overbid the highest binding bid, there's nothing for us\r\n        // to do except revert the transaction.\r\n        require(newBid > highestBindingBid);\r\n\r\n        // grab the previous highest bid (before updating fundsByBidder, in case msg.sender is the\r\n        // highestBidder and is just increasing their maximum bid).\r\n        uint256 highestBid = fundsByBidder[highestBidder];\r\n\r\n        fundsByBidder[msg.sender] = newBid;\r\n\r\n        if (newBid <= highestBid) {\r\n            // if the user has overbid the highestBindingBid but not the highestBid, we simply\r\n            // increase the highestBindingBid and leave highestBidder alone.\r\n\r\n            // note that this case is impossible if msg.sender == highestBidder because you can never\r\n            // bid less ETH than you've already bid.\r\n\r\n            highestBindingBid = min(newBid + bidIncrement, highestBid);\r\n        } else {\r\n            // if msg.sender is already the highest bidder, they must simply be wanting to raise\r\n            // their maximum bid, in which case we shouldn't increase the highestBindingBid.\r\n\r\n            // if the user is NOT highestBidder, and has overbid highestBid completely, we set them\r\n            // as the new highestBidder and recalculate highestBindingBid.\r\n\r\n            if (msg.sender != highestBidder) {\r\n                highestBidder = msg.sender;\r\n                highestBindingBid = min(newBid, highestBid + bidIncrement);\r\n            }\r\n            highestBid = newBid;\r\n        }\r\n\r\n        emit logBid(\r\n            msg.sender,\r\n            newBid,\r\n            highestBidder,\r\n            highestBid,\r\n            highestBindingBid\r\n        );\r\n        return true;\r\n    }\r\n\r\n    function min(uint256 a, uint256 b) private pure returns (uint256) {\r\n        if (a < b) return a;\r\n        return b;\r\n    }\r\n\r\n    function cancelAuction()\r\n        public\r\n        onlyOperator\r\n        onlyNotCanceled\r\n        returns (bool success) {\r\n        state = State.CANCELLED;\r\n        emit stateChanged(state);\r\n        return true;\r\n    }\r\n\r\n    function withdraw() public returns (bool success) {\r\n        address withdrawalAccount;\r\n        uint256 withdrawalAmount;\r\n        bool isSeller = false;\r\n\r\n        if (state == State.CANCELLED) {\r\n            // if the auction was canceled, everyone should simply be allowed to withdraw their funds\r\n            withdrawalAccount = msg.sender;\r\n            withdrawalAmount = fundsByBidder[withdrawalAccount];\r\n        } else {\r\n            // the auction finished without being canceled\r\n\r\n            if (msg.sender == seller || msg.sender == operator) {\r\n                // the auction's owner should be allowed to withdraw the highestBindingBid\r\n                withdrawalAccount = highestBidder;\r\n                withdrawalAmount = highestBindingBid;\r\n                ownerHasWithdrawn = true;\r\n                isSeller = true;\r\n                state = State.SOLD;\r\n                emit stateChanged(state);\r\n                payoutToSeller(withdrawalAmount);\r\n                ERC721(nftAddress).safeTransferFrom(address(this), highestBidder, tokenId);\r\n                return true;\r\n            } else if (msg.sender == highestBidder) {\r\n                // the highest bidder should only be allowed to withdraw the difference between their\r\n                // highest bid and the highestBindingBid\r\n                withdrawalAccount = highestBidder;\r\n                if (ownerHasWithdrawn) {\r\n                    withdrawalAmount = fundsByBidder[highestBidder];\r\n                } else {\r\n                    withdrawalAmount =\r\n                        fundsByBidder[highestBidder] -\r\n                        highestBindingBid;\r\n                }\r\n            } else {\r\n                // anyone who participated but did not win the auction should be allowed to withdraw\r\n                // the full amount of their funds\r\n                withdrawalAccount = msg.sender;\r\n                withdrawalAmount = fundsByBidder[withdrawalAccount];\r\n            }\r\n        }\r\n\r\n        require(withdrawalAmount > 0);\r\n\r\n        fundsByBidder[withdrawalAccount] -= withdrawalAmount;\r\n\r\n        payable(withdrawalAccount).transfer(withdrawalAmount);\r\n\r\n        return true;\r\n    }\r\n  \r\n    function checkRoyalties() internal returns (bool) {\r\n        (bool success) = IERC165(nftAddress).supportsInterface(_INTERFACE_ID_ERC2981);\r\n        return success;\r\n    }\r\n\r\n    function payoutToSeller(uint256 withdrawalAmount) public onlyOperator {\r\n        // Handle royalties\r\n        if(checkRoyalties()) {\r\n            (address _receiver, uint256 _royaltyAmount) = IERC2981Royalties(nftAddress).royaltyInfo(tokenId, highestBindingBid);\r\n            payable(_receiver).transfer(_royaltyAmount);\r\n            payable(seller).transfer(withdrawalAmount - _royaltyAmount);\r\n        }\r\n        else {\r\n            payable(seller).transfer(withdrawalAmount);\r\n        }\r\n    }\r\n\r\n    modifier onlySeller() {\r\n        require(msg.sender == seller);\r\n        _;\r\n    }\r\n\r\n    modifier onlyNotSeller() {\r\n        require(msg.sender != seller);\r\n        _;\r\n    }\r\n\r\n    modifier onlyNotCanceled() {\r\n        require(state != State.CANCELLED);\r\n        _;\r\n    }\r\n\r\n    modifier onlyOperator() {\r\n        require(msg.sender == operator);\r\n        _;\r\n    }\r\n}",
  "sourcePath": "D:\\MSDN Projects\\CryptoChronos\\Truffle\\contracts\\Auction.sol",
  "compiler": {
    "name": "solc",
    "version": "0.8.10+commit.fc410830.Emscripten.clang"
  },
  "schemaVersion": "3.4.3",
  "updatedAt": "2022-01-08T02:41:16.024Z",
  "devdoc": {
    "kind": "dev",
    "methods": {},
    "version": 1
  },
  "userdoc": {
    "kind": "user",
    "methods": {},
    "version": 1
  }
}