{
  "contractName": "ListingEscrow",
  "abi": [
    {
      "inputs": [
        {
          "internalType": "uint256",
          "name": "_price",
          "type": "uint256"
        },
        {
          "internalType": "address",
          "name": "_seller",
          "type": "address"
        },
        {
          "internalType": "address",
          "name": "_operator",
          "type": "address"
        },
        {
          "internalType": "uint256",
          "name": "_tokenId",
          "type": "uint256"
        },
        {
          "internalType": "address",
          "name": "_nftAddress",
          "type": "address"
        }
      ],
      "stateMutability": "nonpayable",
      "type": "constructor"
    },
    {
      "anonymous": false,
      "inputs": [
        {
          "indexed": false,
          "internalType": "enum ListingEscrow.State",
          "name": "_state",
          "type": "uint8"
        }
      ],
      "name": "StateChanged",
      "type": "event"
    },
    {
      "inputs": [],
      "name": "price",
      "outputs": [
        {
          "internalType": "uint256",
          "name": "",
          "type": "uint256"
        }
      ],
      "stateMutability": "view",
      "type": "function"
    },
    {
      "inputs": [],
      "name": "seller",
      "outputs": [
        {
          "internalType": "address payable",
          "name": "",
          "type": "address"
        }
      ],
      "stateMutability": "view",
      "type": "function"
    },
    {
      "inputs": [],
      "name": "state",
      "outputs": [
        {
          "internalType": "enum ListingEscrow.State",
          "name": "",
          "type": "uint8"
        }
      ],
      "stateMutability": "view",
      "type": "function"
    },
    {
      "inputs": [],
      "name": "tokenId",
      "outputs": [
        {
          "internalType": "uint256",
          "name": "",
          "type": "uint256"
        }
      ],
      "stateMutability": "view",
      "type": "function"
    },
    {
      "inputs": [
        {
          "internalType": "address",
          "name": "operator",
          "type": "address"
        },
        {
          "internalType": "address",
          "name": "from",
          "type": "address"
        },
        {
          "internalType": "uint256",
          "name": "tokenId",
          "type": "uint256"
        },
        {
          "internalType": "bytes",
          "name": "data",
          "type": "bytes"
        }
      ],
      "name": "onERC721Received",
      "outputs": [
        {
          "internalType": "bytes4",
          "name": "",
          "type": "bytes4"
        }
      ],
      "stateMutability": "nonpayable",
      "type": "function"
    },
    {
      "inputs": [],
      "name": "purchase",
      "outputs": [],
      "stateMutability": "payable",
      "type": "function"
    },
    {
      "inputs": [
        {
          "internalType": "address",
          "name": "_NFTAddress",
          "type": "address"
        },
        {
          "internalType": "uint256",
          "name": "_TokenID",
          "type": "uint256"
        }
      ],
      "name": "depositNFT",
      "outputs": [],
      "stateMutability": "nonpayable",
      "type": "function"
    },
    {
      "inputs": [],
      "name": "cancel",
      "outputs": [],
      "stateMutability": "nonpayable",
      "type": "function"
    }
  ],
  "bytecode": "0x60806040523480156200001157600080fd5b50604051620010c9380380620010c98339818101604052810190620000379190620001b7565b83600160006101000a81548173ffffffffffffffffffffffffffffffffffffffff021916908373ffffffffffffffffffffffffffffffffffffffff1602179055508460028190555081600381905550806000806101000a81548173ffffffffffffffffffffffffffffffffffffffff021916908373ffffffffffffffffffffffffffffffffffffffff16021790555082600460006101000a81548173ffffffffffffffffffffffffffffffffffffffff021916908373ffffffffffffffffffffffffffffffffffffffff16021790555050505050506200023f565b600080fd5b6000819050919050565b6200012c8162000117565b81146200013857600080fd5b50565b6000815190506200014c8162000121565b92915050565b600073ffffffffffffffffffffffffffffffffffffffff82169050919050565b60006200017f8262000152565b9050919050565b620001918162000172565b81146200019d57600080fd5b50565b600081519050620001b18162000186565b92915050565b600080600080600060a08688031215620001d657620001d562000112565b5b6000620001e6888289016200013b565b9550506020620001f988828901620001a0565b94505060406200020c88828901620001a0565b93505060606200021f888289016200013b565b92505060806200023288828901620001a0565b9150509295509295909350565b610e7a806200024f6000396000f3fe60806040526004361061007b5760003560e01c80639b5b9b181161004e5780639b5b9b181461011d578063a035b1fe14610146578063c19d93fb14610171578063ea8a1af01461019c5761007b565b806308551a5314610080578063150b7a02146100ab57806317d70f7c146100e857806364edfbf014610113575b600080fd5b34801561008c57600080fd5b506100956101b3565b6040516100a2919061094e565b60405180910390f35b3480156100b757600080fd5b506100d260048036038101906100cd9190610a4c565b6101d9565b6040516100df9190610b0f565b60405180910390f35b3480156100f457600080fd5b506100fd6101ee565b60405161010a9190610b39565b60405180910390f35b61011b6101f4565b005b34801561012957600080fd5b50610144600480360381019061013f9190610b54565b610520565b005b34801561015257600080fd5b5061015b6106e9565b6040516101689190610b39565b60405180910390f35b34801561017d57600080fd5b506101866106ef565b6040516101939190610c0b565b60405180910390f35b3480156101a857600080fd5b506101b1610702565b005b600160009054906101000a900473ffffffffffffffffffffffffffffffffffffffff1681565b600063150b7a0260e01b905095945050505050565b60035481565b600254341015610239576040517f08c379a000000000000000000000000000000000000000000000000000000000815260040161023090610c83565b60405180910390fd5b60008054906101000a900473ffffffffffffffffffffffffffffffffffffffff1673ffffffffffffffffffffffffffffffffffffffff166342842e0e30336003546040518463ffffffff1660e01b815260040161029893929190610cb2565b600060405180830381600087803b1580156102b257600080fd5b505af11580156102c6573d6000803e3d6000fd5b5050505060003490506102d7610860565b156104425760008060008054906101000a900473ffffffffffffffffffffffffffffffffffffffff1673ffffffffffffffffffffffffffffffffffffffff16632a55205a600354856040518363ffffffff1660e01b815260040161033c929190610ce9565b6040805180830381865afa158015610358573d6000803e3d6000fd5b505050506040513d601f19601f8201168201806040525081019061037c9190610d3c565b915091508173ffffffffffffffffffffffffffffffffffffffff166108fc829081150290604051600060405180830381858888f193505050501580156103c6573d6000803e3d6000fd5b50600160009054906101000a900473ffffffffffffffffffffffffffffffffffffffff1673ffffffffffffffffffffffffffffffffffffffff166108fc823461040f9190610dab565b9081150290604051600060405180830381858888f1935050505015801561043a573d6000803e3d6000fd5b5050506104ac565b600160009054906101000a900473ffffffffffffffffffffffffffffffffffffffff1673ffffffffffffffffffffffffffffffffffffffff166108fc349081150290604051600060405180830381858888f193505050501580156104aa573d6000803e3d6000fd5b505b6001600460146101000a81548160ff021916908360028111156104d2576104d1610b94565b5b02179055507f551dc40198cc79684bb69e4931dba4ac16e4598792ee1c0a5000aeea366d7bb6600460149054906101000a900460ff166040516105159190610c0b565b60405180910390a150565b600460009054906101000a900473ffffffffffffffffffffffffffffffffffffffff1673ffffffffffffffffffffffffffffffffffffffff163373ffffffffffffffffffffffffffffffffffffffff161461057a57600080fd5b816000806101000a81548173ffffffffffffffffffffffffffffffffffffffff021916908373ffffffffffffffffffffffffffffffffffffffff1602179055508060038190555060008054906101000a900473ffffffffffffffffffffffffffffffffffffffff1673ffffffffffffffffffffffffffffffffffffffff166342842e0e600460009054906101000a900473ffffffffffffffffffffffffffffffffffffffff16306003546040518463ffffffff1660e01b815260040161064293929190610cb2565b600060405180830381600087803b15801561065c57600080fd5b505af1158015610670573d6000803e3d6000fd5b505050506000600460146101000a81548160ff0219169083600281111561069a57610699610b94565b5b02179055507f551dc40198cc79684bb69e4931dba4ac16e4598792ee1c0a5000aeea366d7bb6600460149054906101000a900460ff166040516106dd9190610c0b565b60405180910390a15050565b60025481565b600460149054906101000a900460ff1681565b600160009054906101000a900473ffffffffffffffffffffffffffffffffffffffff1673ffffffffffffffffffffffffffffffffffffffff163373ffffffffffffffffffffffffffffffffffffffff161461075c57600080fd5b60008054906101000a900473ffffffffffffffffffffffffffffffffffffffff1673ffffffffffffffffffffffffffffffffffffffff166342842e0e30336003546040518463ffffffff1660e01b81526004016107bb93929190610cb2565b600060405180830381600087803b1580156107d557600080fd5b505af11580156107e9573d6000803e3d6000fd5b505050506002600460146101000a81548160ff0219169083600281111561081357610812610b94565b5b02179055507f551dc40198cc79684bb69e4931dba4ac16e4598792ee1c0a5000aeea366d7bb6600460149054906101000a900460ff166040516108569190610c0b565b60405180910390a1565b60008060008054906101000a900473ffffffffffffffffffffffffffffffffffffffff1673ffffffffffffffffffffffffffffffffffffffff166301ffc9a7632a55205a60e01b6040518263ffffffff1660e01b81526004016108c39190610b0f565b602060405180830381865afa1580156108e0573d6000803e3d6000fd5b505050506040513d601f19601f820116820180604052508101906109049190610e17565b90508091505090565b600073ffffffffffffffffffffffffffffffffffffffff82169050919050565b60006109388261090d565b9050919050565b6109488161092d565b82525050565b6000602082019050610963600083018461093f565b92915050565b600080fd5b600080fd5b600061097e8261090d565b9050919050565b61098e81610973565b811461099957600080fd5b50565b6000813590506109ab81610985565b92915050565b6000819050919050565b6109c4816109b1565b81146109cf57600080fd5b50565b6000813590506109e1816109bb565b92915050565b600080fd5b600080fd5b600080fd5b60008083601f840112610a0c57610a0b6109e7565b5b8235905067ffffffffffffffff811115610a2957610a286109ec565b5b602083019150836001820283011115610a4557610a446109f1565b5b9250929050565b600080600080600060808688031215610a6857610a67610969565b5b6000610a768882890161099c565b9550506020610a878882890161099c565b9450506040610a98888289016109d2565b935050606086013567ffffffffffffffff811115610ab957610ab861096e565b5b610ac5888289016109f6565b92509250509295509295909350565b60007fffffffff0000000000000000000000000000000000000000000000000000000082169050919050565b610b0981610ad4565b82525050565b6000602082019050610b246000830184610b00565b92915050565b610b33816109b1565b82525050565b6000602082019050610b4e6000830184610b2a565b92915050565b60008060408385031215610b6b57610b6a610969565b5b6000610b798582860161099c565b9250506020610b8a858286016109d2565b9150509250929050565b7f4e487b7100000000000000000000000000000000000000000000000000000000600052602160045260246000fd5b60038110610bd457610bd3610b94565b5b50565b6000819050610be582610bc3565b919050565b6000610bf582610bd7565b9050919050565b610c0581610bea565b82525050565b6000602082019050610c206000830184610bfc565b92915050565b600082825260208201905092915050565b7f496e636f72726563742070726963650000000000000000000000000000000000600082015250565b6000610c6d600f83610c26565b9150610c7882610c37565b602082019050919050565b60006020820190508181036000830152610c9c81610c60565b9050919050565b610cac81610973565b82525050565b6000606082019050610cc76000830186610ca3565b610cd46020830185610ca3565b610ce16040830184610b2a565b949350505050565b6000604082019050610cfe6000830185610b2a565b610d0b6020830184610b2a565b9392505050565b600081519050610d2181610985565b92915050565b600081519050610d36816109bb565b92915050565b60008060408385031215610d5357610d52610969565b5b6000610d6185828601610d12565b9250506020610d7285828601610d27565b9150509250929050565b7f4e487b7100000000000000000000000000000000000000000000000000000000600052601160045260246000fd5b6000610db6826109b1565b9150610dc1836109b1565b925082821015610dd457610dd3610d7c565b5b828203905092915050565b60008115159050919050565b610df481610ddf565b8114610dff57600080fd5b50565b600081519050610e1181610deb565b92915050565b600060208284031215610e2d57610e2c610969565b5b6000610e3b84828501610e02565b9150509291505056fea264697066735822122088cc7352d3a52e73aa2d6f1df177dc32194aff29ea67926dc2231fc3aa6e7e2d64736f6c634300080a0033",
  "immutableReferences": {},
  "source": "//SPDX-License-Identifier: MIT\r\n\r\npragma solidity ^0.8.10;\r\n\r\nimport \"@openzeppelin/contracts/token/ERC721/IERC721Receiver.sol\";\r\nimport \"@openzeppelin/contracts/token/ERC721/ERC721.sol\";\r\n\r\nimport \"./Interfaces/IERC2981Royalties.sol\";\r\n\r\ncontract ListingEscrow is IERC721Receiver{\r\n\r\n    // constants\r\n    bytes4 private constant _INTERFACE_ID_ERC2981 = 0x2a55205a;\r\n\r\n    enum State {\r\n        ACTIVE, SOLD, CANCELLED\r\n    }\r\n\r\n    address private nftAddress;\r\n    address payable public seller;\r\n    uint public price;\r\n    uint256 public tokenId;\r\n    address private operator;\r\n\r\n    State public state;\r\n    event StateChanged(State _state);\r\n\r\n    constructor(uint _price,\r\n        address _seller,\r\n        address _operator,\r\n        uint256 _tokenId,\r\n        address _nftAddress) {\r\n        seller = payable(_seller);\r\n        price = _price;\r\n        tokenId = _tokenId;\r\n        nftAddress = _nftAddress;\r\n        operator = _operator;\r\n    }\r\n\r\n    function onERC721Received(address operator, address from, uint256 tokenId, bytes calldata data ) public override returns (bytes4) {\r\n        return this.onERC721Received.selector;\r\n    }\r\n\r\n    function purchase() \r\n    public\r\n    _isCorrectPrice\r\n    payable {\r\n        ERC721(nftAddress).safeTransferFrom(address(this), msg.sender, tokenId);\r\n        uint amount = msg.value;\r\n        if(checkRoyalties()) {\r\n            (address _receiver, uint256 _royaltyAmount) = IERC2981Royalties(nftAddress).royaltyInfo(tokenId, amount);\r\n            payable(_receiver).transfer(_royaltyAmount);\r\n            seller.transfer(msg.value - _royaltyAmount);\r\n        }\r\n        else {\r\n            seller.transfer(msg.value);\r\n        }\r\n        state = State.SOLD;\r\n        emit StateChanged(state);\r\n    }\r\n    \r\n    function depositNFT(address _NFTAddress, uint256 _TokenID)\r\n        public\r\n        _onlyOperator\r\n    {\r\n        nftAddress = _NFTAddress;\r\n        tokenId = _TokenID;\r\n        ERC721(nftAddress).safeTransferFrom(operator, address(this), tokenId);\r\n        state = State.ACTIVE;\r\n        emit StateChanged(state);\r\n    }\r\n\r\n       function checkRoyalties() internal returns (bool) {\r\n        (bool success) = IERC165(nftAddress).supportsInterface(_INTERFACE_ID_ERC2981);\r\n        return success;\r\n    }\r\n    \r\n    function cancel()\r\n        public\r\n        _onlySeller\r\n    {\r\n        ERC721(nftAddress).safeTransferFrom(address(this), msg.sender, tokenId);\r\n        state = State.CANCELLED;\r\n        emit StateChanged(state);\r\n    }\r\n\r\n    modifier _onlySeller() {\r\n        require(msg.sender == seller);\r\n        _;\r\n    }\r\n\r\n    modifier _onlyOperator() {\r\n        require(msg.sender == operator);\r\n        _;\r\n    }\r\n\r\n    modifier _isCorrectPrice() {\r\n        require(msg.value >= price, \"Incorrect price\");\r\n        _;\r\n    }\r\n}",
  "sourcePath": "D:\\MSDN Projects\\NFT Marketplace\\Truffle\\contracts\\Listing.sol",
  "compiler": {
    "name": "solc",
    "version": "0.8.10+commit.fc410830.Emscripten.clang"
  },
  "schemaVersion": "3.4.3",
  "updatedAt": "2021-12-30T18:22:25.548Z",
  "devdoc": {
    "kind": "dev",
    "methods": {
      "onERC721Received(address,address,uint256,bytes)": {
        "details": "Whenever an {IERC721} `tokenId` token is transferred to this contract via {IERC721-safeTransferFrom} by `operator` from `from`, this function is called. It must return its Solidity selector to confirm the token transfer. If any other value is returned or the interface is not implemented by the recipient, the transfer will be reverted. The selector can be obtained in Solidity with `IERC721.onERC721Received.selector`."
      }
    },
    "version": 1
  },
  "userdoc": {
    "kind": "user",
    "methods": {},
    "version": 1
  }
}