{
  "contractName": "NftEscrow",
  "abi": [
    {
      "inputs": [
        {
          "internalType": "address",
          "name": "sender",
          "type": "address"
        },
        {
          "internalType": "address",
          "name": "buyer",
          "type": "address"
        }
      ],
      "stateMutability": "payable",
      "type": "constructor"
    },
    {
      "anonymous": false,
      "inputs": [
        {
          "indexed": false,
          "internalType": "enum NftEscrow.ProjectState",
          "name": "state",
          "type": "uint8"
        }
      ],
      "name": "StateUpdated",
      "type": "event"
    },
    {
      "inputs": [],
      "name": "buyerAddress",
      "outputs": [
        {
          "internalType": "address payable",
          "name": "",
          "type": "address"
        }
      ],
      "stateMutability": "view",
      "type": "function"
    },
    {
      "inputs": [],
      "name": "nftAddress",
      "outputs": [
        {
          "internalType": "address",
          "name": "",
          "type": "address"
        }
      ],
      "stateMutability": "view",
      "type": "function"
    },
    {
      "inputs": [],
      "name": "projectState",
      "outputs": [
        {
          "internalType": "enum NftEscrow.ProjectState",
          "name": "",
          "type": "uint8"
        }
      ],
      "stateMutability": "view",
      "type": "function"
    },
    {
      "inputs": [],
      "name": "sellerAddress",
      "outputs": [
        {
          "internalType": "address payable",
          "name": "",
          "type": "address"
        }
      ],
      "stateMutability": "view",
      "type": "function"
    },
    {
      "inputs": [],
      "name": "tokenID",
      "outputs": [
        {
          "internalType": "uint256",
          "name": "",
          "type": "uint256"
        }
      ],
      "stateMutability": "view",
      "type": "function"
    },
    {
      "inputs": [
        {
          "internalType": "address",
          "name": "operator",
          "type": "address"
        },
        {
          "internalType": "address",
          "name": "from",
          "type": "address"
        },
        {
          "internalType": "uint256",
          "name": "tokenId",
          "type": "uint256"
        },
        {
          "internalType": "bytes",
          "name": "data",
          "type": "bytes"
        }
      ],
      "name": "onERC721Received",
      "outputs": [
        {
          "internalType": "bytes4",
          "name": "",
          "type": "bytes4"
        }
      ],
      "stateMutability": "nonpayable",
      "type": "function"
    },
    {
      "inputs": [
        {
          "internalType": "address",
          "name": "_NFTAddress",
          "type": "address"
        },
        {
          "internalType": "uint256",
          "name": "_TokenID",
          "type": "uint256"
        }
      ],
      "name": "depositNFT",
      "outputs": [],
      "stateMutability": "nonpayable",
      "type": "function"
    },
    {
      "inputs": [],
      "name": "cancelAtNFT",
      "outputs": [],
      "stateMutability": "nonpayable",
      "type": "function"
    },
    {
      "inputs": [
        {
          "internalType": "bool",
          "name": "_state",
          "type": "bool"
        }
      ],
      "name": "cancelBeforeDelivery",
      "outputs": [],
      "stateMutability": "payable",
      "type": "function"
    },
    {
      "inputs": [],
      "name": "depositETH",
      "outputs": [],
      "stateMutability": "payable",
      "type": "function"
    },
    {
      "inputs": [],
      "name": "initiateDelivery",
      "outputs": [],
      "stateMutability": "nonpayable",
      "type": "function"
    },
    {
      "inputs": [],
      "name": "confirmDelivery",
      "outputs": [],
      "stateMutability": "payable",
      "type": "function"
    },
    {
      "inputs": [],
      "name": "getBalance",
      "outputs": [
        {
          "internalType": "uint256",
          "name": "balance",
          "type": "uint256"
        }
      ],
      "stateMutability": "view",
      "type": "function"
    }
  ],
  "bytecode": "0x60806040526000600460006101000a81548160ff0219169083151502179055506000600460016101000a81548160ff021916908315150217905550604051620015b4380380620015b483398181016040528101906200005f9190620001b6565b816000806101000a81548173ffffffffffffffffffffffffffffffffffffffff021916908373ffffffffffffffffffffffffffffffffffffffff160217905550600073ffffffffffffffffffffffffffffffffffffffff168173ffffffffffffffffffffffffffffffffffffffff1614620001165780600160006101000a81548173ffffffffffffffffffffffffffffffffffffffff021916908373ffffffffffffffffffffffffffffffffffffffff1602179055505b6000600460026101000a81548160ff021916908360068111156200013f576200013e620001fd565b5b021790555050506200022c565b600080fd5b600073ffffffffffffffffffffffffffffffffffffffff82169050919050565b60006200017e8262000151565b9050919050565b620001908162000171565b81146200019c57600080fd5b50565b600081519050620001b08162000185565b92915050565b60008060408385031215620001d057620001cf6200014c565b5b6000620001e0858286016200019f565b9250506020620001f3858286016200019f565b9150509250929050565b7f4e487b7100000000000000000000000000000000000000000000000000000000600052602160045260246000fd5b611378806200023c6000396000f3fe6080604052600436106100c25760003560e01c80635bf8633a1161007f5780639b5b9b18116100595780639b5b9b1814610218578063a1ee418114610241578063a5c42ef114610258578063f6326fb314610283576100c2565b80635bf8633a146101b85780635e10177b146101e3578063748807ab146101ed576100c2565b806312065fe0146100c7578063150b7a02146100f25780632f9fa7f61461012f578063342901a7146101465780633d9b2ae61461016257806344834aca1461018d575b600080fd5b3480156100d357600080fd5b506100dc61028d565b6040516100e99190610ee6565b60405180910390f35b3480156100fe57600080fd5b5061011960048036038101906101149190610ffa565b610295565b60405161012691906110bd565b60405180910390f35b34801561013b57600080fd5b506101446102aa565b005b610160600480360381019061015b9190611110565b61044a565b005b34801561016e57600080fd5b50610177610795565b604051610184919061115e565b60405180910390f35b34801561019957600080fd5b506101a26107b9565b6040516101af919061115e565b60405180910390f35b3480156101c457600080fd5b506101cd6107df565b6040516101da9190611188565b60405180910390f35b6101eb610805565b005b3480156101f957600080fd5b50610202610a30565b60405161020f919061121a565b60405180910390f35b34801561022457600080fd5b5061023f600480360381019061023a9190611235565b610a43565b005b34801561024d57600080fd5b50610256610c2d565b005b34801561026457600080fd5b5061026d610d79565b60405161027a9190610ee6565b60405180910390f35b61028b610d7f565b005b600047905090565b600063150b7a0260e01b905095945050505050565b60018060068111156102bf576102be6111a3565b5b600460029054906101000a900460ff1660068111156102e1576102e06111a3565b5b146102eb57600080fd5b60008054906101000a900473ffffffffffffffffffffffffffffffffffffffff1673ffffffffffffffffffffffffffffffffffffffff163373ffffffffffffffffffffffffffffffffffffffff161461034357600080fd5b600260009054906101000a900473ffffffffffffffffffffffffffffffffffffffff1673ffffffffffffffffffffffffffffffffffffffff166342842e0e30336003546040518463ffffffff1660e01b81526004016103a493929190611275565b600060405180830381600087803b1580156103be57600080fd5b505af11580156103d2573d6000803e3d6000fd5b505050506002600460026101000a81548160ff021916908360068111156103fc576103fb6111a3565b5b02179055507f23ad33ab6a13a00aa7d06cd167b2abd03dec86af3cf3cc91759dcd3ae8411887600460029054906101000a900460ff1660405161043f919061121a565b60405180910390a150565b600380600681111561045f5761045e6111a3565b5b600460029054906101000a900460ff166006811115610481576104806111a3565b5b1461048b57600080fd5b600160009054906101000a900473ffffffffffffffffffffffffffffffffffffffff1673ffffffffffffffffffffffffffffffffffffffff163373ffffffffffffffffffffffffffffffffffffffff161480610532575060008054906101000a900473ffffffffffffffffffffffffffffffffffffffff1673ffffffffffffffffffffffffffffffffffffffff163373ffffffffffffffffffffffffffffffffffffffff16145b61053b57600080fd5b60008054906101000a900473ffffffffffffffffffffffffffffffffffffffff1673ffffffffffffffffffffffffffffffffffffffff163373ffffffffffffffffffffffffffffffffffffffff1614156105ae5781600460016101000a81548160ff0219169083151502179055506105c9565b81600460006101000a81548160ff0219169083151502179055505b60011515600460019054906101000a900460ff1615151480156105ff575060011515600460009054906101000a900460ff161515145b1561079157600260009054906101000a900473ffffffffffffffffffffffffffffffffffffffff1673ffffffffffffffffffffffffffffffffffffffff166342842e0e3060008054906101000a900473ffffffffffffffffffffffffffffffffffffffff166003546040518463ffffffff1660e01b81526004016106859392919061130b565b600060405180830381600087803b15801561069f57600080fd5b505af11580156106b3573d6000803e3d6000fd5b50505050600160009054906101000a900473ffffffffffffffffffffffffffffffffffffffff1673ffffffffffffffffffffffffffffffffffffffff166108fc479081150290604051600060405180830381858888f1935050505015801561071f573d6000803e3d6000fd5b5060048060026101000a81548160ff02191690836006811115610745576107446111a3565b5b02179055507f23ad33ab6a13a00aa7d06cd167b2abd03dec86af3cf3cc91759dcd3ae8411887600460029054906101000a900460ff16604051610788919061121a565b60405180910390a15b5050565b60008054906101000a900473ffffffffffffffffffffffffffffffffffffffff1681565b600160009054906101000a900473ffffffffffffffffffffffffffffffffffffffff1681565b600260009054906101000a900473ffffffffffffffffffffffffffffffffffffffff1681565b600580600681111561081a576108196111a3565b5b600460029054906101000a900460ff16600681111561083c5761083b6111a3565b5b1461084657600080fd5b600160009054906101000a900473ffffffffffffffffffffffffffffffffffffffff1673ffffffffffffffffffffffffffffffffffffffff163373ffffffffffffffffffffffffffffffffffffffff16146108a057600080fd5b600260009054906101000a900473ffffffffffffffffffffffffffffffffffffffff1673ffffffffffffffffffffffffffffffffffffffff166342842e0e30600160009054906101000a900473ffffffffffffffffffffffffffffffffffffffff166003546040518463ffffffff1660e01b81526004016109239392919061130b565b600060405180830381600087803b15801561093d57600080fd5b505af1158015610951573d6000803e3d6000fd5b5050505060008054906101000a900473ffffffffffffffffffffffffffffffffffffffff1673ffffffffffffffffffffffffffffffffffffffff166108fc479081150290604051600060405180830381858888f193505050501580156109bb573d6000803e3d6000fd5b506006600460026101000a81548160ff021916908360068111156109e2576109e16111a3565b5b02179055507f23ad33ab6a13a00aa7d06cd167b2abd03dec86af3cf3cc91759dcd3ae8411887600460029054906101000a900460ff16604051610a25919061121a565b60405180910390a150565b600460029054906101000a900460ff1681565b6000806006811115610a5857610a576111a3565b5b600460029054906101000a900460ff166006811115610a7a57610a796111a3565b5b14610a8457600080fd5b60008054906101000a900473ffffffffffffffffffffffffffffffffffffffff1673ffffffffffffffffffffffffffffffffffffffff163373ffffffffffffffffffffffffffffffffffffffff1614610adc57600080fd5b82600260006101000a81548173ffffffffffffffffffffffffffffffffffffffff021916908373ffffffffffffffffffffffffffffffffffffffff16021790555081600381905550600260009054906101000a900473ffffffffffffffffffffffffffffffffffffffff1673ffffffffffffffffffffffffffffffffffffffff166342842e0e33306003546040518463ffffffff1660e01b8152600401610b8593929190611275565b600060405180830381600087803b158015610b9f57600080fd5b505af1158015610bb3573d6000803e3d6000fd5b505050506001600460026101000a81548160ff02191690836006811115610bdd57610bdc6111a3565b5b02179055507f23ad33ab6a13a00aa7d06cd167b2abd03dec86af3cf3cc91759dcd3ae8411887600460029054906101000a900460ff16604051610c20919061121a565b60405180910390a1505050565b6003806006811115610c4257610c416111a3565b5b600460029054906101000a900460ff166006811115610c6457610c636111a3565b5b14610c6e57600080fd5b60008054906101000a900473ffffffffffffffffffffffffffffffffffffffff1673ffffffffffffffffffffffffffffffffffffffff163373ffffffffffffffffffffffffffffffffffffffff1614610cc657600080fd5b60001515600460009054906101000a900460ff161515148015610cfc575060001515600460019054906101000a900460ff161515145b610d0557600080fd5b6005600460026101000a81548160ff02191690836006811115610d2b57610d2a6111a3565b5b02179055507f23ad33ab6a13a00aa7d06cd167b2abd03dec86af3cf3cc91759dcd3ae8411887600460029054906101000a900460ff16604051610d6e919061121a565b60405180910390a150565b60035481565b6001806006811115610d9457610d936111a3565b5b600460029054906101000a900460ff166006811115610db657610db56111a3565b5b14610dc057600080fd5b600073ffffffffffffffffffffffffffffffffffffffff16600160009054906101000a900473ffffffffffffffffffffffffffffffffffffffff1673ffffffffffffffffffffffffffffffffffffffff161415610e595733600160006101000a81548173ffffffffffffffffffffffffffffffffffffffff021916908373ffffffffffffffffffffffffffffffffffffffff1602179055505b6003600460026101000a81548160ff02191690836006811115610e7f57610e7e6111a3565b5b02179055507f23ad33ab6a13a00aa7d06cd167b2abd03dec86af3cf3cc91759dcd3ae8411887600460029054906101000a900460ff16604051610ec2919061121a565b60405180910390a150565b6000819050919050565b610ee081610ecd565b82525050565b6000602082019050610efb6000830184610ed7565b92915050565b600080fd5b600080fd5b600073ffffffffffffffffffffffffffffffffffffffff82169050919050565b6000610f3682610f0b565b9050919050565b610f4681610f2b565b8114610f5157600080fd5b50565b600081359050610f6381610f3d565b92915050565b610f7281610ecd565b8114610f7d57600080fd5b50565b600081359050610f8f81610f69565b92915050565b600080fd5b600080fd5b600080fd5b60008083601f840112610fba57610fb9610f95565b5b8235905067ffffffffffffffff811115610fd757610fd6610f9a565b5b602083019150836001820283011115610ff357610ff2610f9f565b5b9250929050565b60008060008060006080868803121561101657611015610f01565b5b600061102488828901610f54565b955050602061103588828901610f54565b945050604061104688828901610f80565b935050606086013567ffffffffffffffff81111561106757611066610f06565b5b61107388828901610fa4565b92509250509295509295909350565b60007fffffffff0000000000000000000000000000000000000000000000000000000082169050919050565b6110b781611082565b82525050565b60006020820190506110d260008301846110ae565b92915050565b60008115159050919050565b6110ed816110d8565b81146110f857600080fd5b50565b60008135905061110a816110e4565b92915050565b60006020828403121561112657611125610f01565b5b6000611134848285016110fb565b91505092915050565b600061114882610f0b565b9050919050565b6111588161113d565b82525050565b6000602082019050611173600083018461114f565b92915050565b61118281610f2b565b82525050565b600060208201905061119d6000830184611179565b92915050565b7f4e487b7100000000000000000000000000000000000000000000000000000000600052602160045260246000fd5b600781106111e3576111e26111a3565b5b50565b60008190506111f4826111d2565b919050565b6000611204826111e6565b9050919050565b611214816111f9565b82525050565b600060208201905061122f600083018461120b565b92915050565b6000806040838503121561124c5761124b610f01565b5b600061125a85828601610f54565b925050602061126b85828601610f80565b9150509250929050565b600060608201905061128a6000830186611179565b6112976020830185611179565b6112a46040830184610ed7565b949350505050565b6000819050919050565b60006112d16112cc6112c784610f0b565b6112ac565b610f0b565b9050919050565b60006112e3826112b6565b9050919050565b60006112f5826112d8565b9050919050565b611305816112ea565b82525050565b60006060820190506113206000830186611179565b61132d60208301856112fc565b61133a6040830184610ed7565b94935050505056fea26469706673582212201026afaafb3876860044275add80b050242a80f5c0a725e639d4257ba2d5723964736f6c634300080a0033",
  "immutableReferences": {},
  "source": "\r\n//SPDX-License-Identifier: MIT\r\n \r\npragma solidity ^0.8.10;\r\n\r\nimport \"@openzeppelin/contracts/token/ERC721/ERC721.sol\";\r\nimport \"@openzeppelin/contracts/token/ERC721/IERC721Receiver.sol\";\r\n\r\ncontract NftEscrow is IERC721Receiver {\r\n    \r\n    enum ProjectState { newEscrow, nftDeposited, cancelNFT, ethDeposited, canceledBeforeDelivery, deliveryInitiated, delivered }\r\n    \r\n    address payable public sellerAddress;\r\n    address payable public buyerAddress;\r\n    address public nftAddress;\r\n    uint256 public tokenID;\r\n    bool internal buyerCancel = false;\r\n    bool internal sellerCancel = false;\r\n    ProjectState public projectState;\r\n\r\n    event StateUpdated(ProjectState state);\r\n\r\n    constructor(address sender, address buyer) payable {\r\n        sellerAddress = payable(sender);\r\n        if(buyer != address(0)) {\r\n            buyerAddress = payable(buyer);\r\n        }\r\n        projectState = ProjectState.newEscrow;\r\n    }\r\n\r\n    function onERC721Received(address operator, address from, uint256 tokenId, bytes calldata data ) public override returns (bytes4) {\r\n        return this.onERC721Received.selector;\r\n    }\r\n    \r\n    function depositNFT(address _NFTAddress, uint256 _TokenID)\r\n        public\r\n        inProjectState(ProjectState.newEscrow)\r\n        onlySeller\r\n    {\r\n        nftAddress = _NFTAddress;\r\n        tokenID = _TokenID;\r\n        ERC721(nftAddress).safeTransferFrom(msg.sender, address(this), tokenID);\r\n        projectState = ProjectState.nftDeposited;\r\n        emit StateUpdated(projectState);\r\n    }\r\n    \r\n    function cancelAtNFT()\r\n        public\r\n        inProjectState(ProjectState.nftDeposited)\r\n        onlySeller\r\n    {\r\n        ERC721(nftAddress).safeTransferFrom(address(this), msg.sender, tokenID);\r\n        projectState = ProjectState.cancelNFT;\r\n        emit StateUpdated(projectState);\r\n    }\r\n  \r\n    function cancelBeforeDelivery(bool _state)\r\n        public\r\n        inProjectState(ProjectState.ethDeposited)\r\n        payable\r\n        BuyerOrSeller\r\n    {\r\n        if (msg.sender == sellerAddress){\r\n            sellerCancel = _state;\r\n        }\r\n        else{\r\n            buyerCancel = _state;\r\n        }\r\n        \r\n        if (sellerCancel == true && buyerCancel == true){\r\n            ERC721(nftAddress).safeTransferFrom(address(this), sellerAddress, tokenID);\r\n            buyerAddress.transfer(address(this).balance);\r\n            projectState = ProjectState.canceledBeforeDelivery;    \r\n            emit StateUpdated(projectState);\r\n        }\r\n    }\r\n    \r\n    function depositETH()\r\n        public\r\n        payable\r\n        inProjectState(ProjectState.nftDeposited)\r\n    {\r\n        if(buyerAddress == address(0)) {\r\n            buyerAddress = payable(msg.sender);\r\n        }\r\n        projectState = ProjectState.ethDeposited;\r\n        emit StateUpdated(projectState);\r\n    }\r\n    \r\n    function initiateDelivery()\r\n        public\r\n        inProjectState(ProjectState.ethDeposited)\r\n        onlySeller\r\n        noDispute\r\n    {\r\n        projectState = ProjectState.deliveryInitiated;\r\n        emit StateUpdated(projectState);\r\n    }        \r\n    \r\n    function confirmDelivery()\r\n        public\r\n        payable\r\n        inProjectState(ProjectState.deliveryInitiated)\r\n        onlyBuyer\r\n    {\r\n        ERC721(nftAddress).safeTransferFrom(address(this), buyerAddress, tokenID);\r\n        sellerAddress.transfer(address(this).balance);\r\n        projectState = ProjectState.delivered;\r\n        emit StateUpdated(projectState);\r\n    }\r\n        \r\n   \tmodifier condition(bool _condition) {\r\n\t\trequire(_condition);\r\n\t\t_;\r\n\t}\r\n\r\n\tmodifier onlySeller() {\r\n\t\trequire(msg.sender == sellerAddress);\r\n\t\t_;\r\n\t}\r\n\r\n\tmodifier onlyBuyer() {\r\n\t\trequire(msg.sender == buyerAddress);\r\n\t\t_;\r\n\t}\r\n\t\r\n\tmodifier noDispute(){\r\n\t    require(buyerCancel == false && sellerCancel == false);\r\n\t    _;\r\n\t}\r\n\t\r\n\tmodifier BuyerOrSeller() {\r\n\t\trequire(msg.sender == buyerAddress || msg.sender == sellerAddress);\r\n\t\t_;\r\n\t}\r\n\t\r\n\tmodifier inProjectState(ProjectState _state) {\r\n\t\trequire(projectState == _state);\r\n\t\t_;\r\n\t}\r\n\r\n    function getBalance()\r\n        public\r\n        view\r\n        returns (uint256 balance)\r\n    {\r\n        return address(this).balance;\r\n    }\r\n} ",
  "sourcePath": "D:\\MSDN Projects\\CryptoChronos\\Truffle\\contracts\\Escrow.sol",
  "compiler": {
    "name": "solc",
    "version": "0.8.10+commit.fc410830.Emscripten.clang"
  },
  "schemaVersion": "3.4.3",
  "updatedAt": "2022-01-08T02:41:16.055Z",
  "devdoc": {
    "kind": "dev",
    "methods": {
      "onERC721Received(address,address,uint256,bytes)": {
        "details": "Whenever an {IERC721} `tokenId` token is transferred to this contract via {IERC721-safeTransferFrom} by `operator` from `from`, this function is called. It must return its Solidity selector to confirm the token transfer. If any other value is returned or the interface is not implemented by the recipient, the transfer will be reverted. The selector can be obtained in Solidity with `IERC721.onERC721Received.selector`."
      }
    },
    "version": 1
  },
  "userdoc": {
    "kind": "user",
    "methods": {},
    "version": 1
  }
}