{
  "contractName": "WatchNFT",
  "abi": [
    {
      "inputs": [],
      "stateMutability": "nonpayable",
      "type": "constructor"
    },
    {
      "anonymous": false,
      "inputs": [
        {
          "indexed": true,
          "internalType": "address",
          "name": "owner",
          "type": "address"
        },
        {
          "indexed": true,
          "internalType": "address",
          "name": "approved",
          "type": "address"
        },
        {
          "indexed": true,
          "internalType": "uint256",
          "name": "tokenId",
          "type": "uint256"
        }
      ],
      "name": "Approval",
      "type": "event"
    },
    {
      "anonymous": false,
      "inputs": [
        {
          "indexed": true,
          "internalType": "address",
          "name": "owner",
          "type": "address"
        },
        {
          "indexed": true,
          "internalType": "address",
          "name": "operator",
          "type": "address"
        },
        {
          "indexed": false,
          "internalType": "bool",
          "name": "approved",
          "type": "bool"
        }
      ],
      "name": "ApprovalForAll",
      "type": "event"
    },
    {
      "anonymous": false,
      "inputs": [
        {
          "indexed": true,
          "internalType": "address",
          "name": "previousOwner",
          "type": "address"
        },
        {
          "indexed": true,
          "internalType": "address",
          "name": "newOwner",
          "type": "address"
        }
      ],
      "name": "OwnershipTransferred",
      "type": "event"
    },
    {
      "anonymous": false,
      "inputs": [
        {
          "indexed": true,
          "internalType": "address",
          "name": "from",
          "type": "address"
        },
        {
          "indexed": true,
          "internalType": "address",
          "name": "to",
          "type": "address"
        },
        {
          "indexed": true,
          "internalType": "uint256",
          "name": "tokenId",
          "type": "uint256"
        }
      ],
      "name": "Transfer",
      "type": "event"
    },
    {
      "inputs": [
        {
          "internalType": "address",
          "name": "to",
          "type": "address"
        },
        {
          "internalType": "uint256",
          "name": "tokenId",
          "type": "uint256"
        }
      ],
      "name": "approve",
      "outputs": [],
      "stateMutability": "nonpayable",
      "type": "function"
    },
    {
      "inputs": [
        {
          "internalType": "address",
          "name": "owner",
          "type": "address"
        }
      ],
      "name": "balanceOf",
      "outputs": [
        {
          "internalType": "uint256",
          "name": "",
          "type": "uint256"
        }
      ],
      "stateMutability": "view",
      "type": "function",
      "constant": true
    },
    {
      "inputs": [
        {
          "internalType": "uint256",
          "name": "tokenId",
          "type": "uint256"
        }
      ],
      "name": "getApproved",
      "outputs": [
        {
          "internalType": "address",
          "name": "",
          "type": "address"
        }
      ],
      "stateMutability": "view",
      "type": "function",
      "constant": true
    },
    {
      "inputs": [
        {
          "internalType": "address",
          "name": "owner",
          "type": "address"
        },
        {
          "internalType": "address",
          "name": "operator",
          "type": "address"
        }
      ],
      "name": "isApprovedForAll",
      "outputs": [
        {
          "internalType": "bool",
          "name": "",
          "type": "bool"
        }
      ],
      "stateMutability": "view",
      "type": "function",
      "constant": true
    },
    {
      "inputs": [],
      "name": "name",
      "outputs": [
        {
          "internalType": "string",
          "name": "",
          "type": "string"
        }
      ],
      "stateMutability": "view",
      "type": "function",
      "constant": true
    },
    {
      "inputs": [],
      "name": "owner",
      "outputs": [
        {
          "internalType": "address",
          "name": "",
          "type": "address"
        }
      ],
      "stateMutability": "view",
      "type": "function",
      "constant": true
    },
    {
      "inputs": [
        {
          "internalType": "uint256",
          "name": "tokenId",
          "type": "uint256"
        }
      ],
      "name": "ownerOf",
      "outputs": [
        {
          "internalType": "address",
          "name": "",
          "type": "address"
        }
      ],
      "stateMutability": "view",
      "type": "function",
      "constant": true
    },
    {
      "inputs": [],
      "name": "renounceOwnership",
      "outputs": [],
      "stateMutability": "nonpayable",
      "type": "function"
    },
    {
      "inputs": [
        {
          "internalType": "uint256",
          "name": "tokenId",
          "type": "uint256"
        },
        {
          "internalType": "uint256",
          "name": "value",
          "type": "uint256"
        }
      ],
      "name": "royaltyInfo",
      "outputs": [
        {
          "internalType": "address",
          "name": "receiver",
          "type": "address"
        },
        {
          "internalType": "uint256",
          "name": "royaltyAmount",
          "type": "uint256"
        }
      ],
      "stateMutability": "view",
      "type": "function",
      "constant": true
    },
    {
      "inputs": [
        {
          "internalType": "address",
          "name": "from",
          "type": "address"
        },
        {
          "internalType": "address",
          "name": "to",
          "type": "address"
        },
        {
          "internalType": "uint256",
          "name": "tokenId",
          "type": "uint256"
        }
      ],
      "name": "safeTransferFrom",
      "outputs": [],
      "stateMutability": "nonpayable",
      "type": "function"
    },
    {
      "inputs": [
        {
          "internalType": "address",
          "name": "from",
          "type": "address"
        },
        {
          "internalType": "address",
          "name": "to",
          "type": "address"
        },
        {
          "internalType": "uint256",
          "name": "tokenId",
          "type": "uint256"
        },
        {
          "internalType": "bytes",
          "name": "_data",
          "type": "bytes"
        }
      ],
      "name": "safeTransferFrom",
      "outputs": [],
      "stateMutability": "nonpayable",
      "type": "function"
    },
    {
      "inputs": [
        {
          "internalType": "address",
          "name": "operator",
          "type": "address"
        },
        {
          "internalType": "bool",
          "name": "approved",
          "type": "bool"
        }
      ],
      "name": "setApprovalForAll",
      "outputs": [],
      "stateMutability": "nonpayable",
      "type": "function"
    },
    {
      "inputs": [],
      "name": "symbol",
      "outputs": [
        {
          "internalType": "string",
          "name": "",
          "type": "string"
        }
      ],
      "stateMutability": "view",
      "type": "function",
      "constant": true
    },
    {
      "inputs": [
        {
          "internalType": "uint256",
          "name": "index",
          "type": "uint256"
        }
      ],
      "name": "tokenByIndex",
      "outputs": [
        {
          "internalType": "uint256",
          "name": "",
          "type": "uint256"
        }
      ],
      "stateMutability": "view",
      "type": "function",
      "constant": true
    },
    {
      "inputs": [
        {
          "internalType": "address",
          "name": "owner",
          "type": "address"
        },
        {
          "internalType": "uint256",
          "name": "index",
          "type": "uint256"
        }
      ],
      "name": "tokenOfOwnerByIndex",
      "outputs": [
        {
          "internalType": "uint256",
          "name": "",
          "type": "uint256"
        }
      ],
      "stateMutability": "view",
      "type": "function",
      "constant": true
    },
    {
      "inputs": [],
      "name": "totalSupply",
      "outputs": [
        {
          "internalType": "uint256",
          "name": "",
          "type": "uint256"
        }
      ],
      "stateMutability": "view",
      "type": "function",
      "constant": true
    },
    {
      "inputs": [
        {
          "internalType": "address",
          "name": "from",
          "type": "address"
        },
        {
          "internalType": "address",
          "name": "to",
          "type": "address"
        },
        {
          "internalType": "uint256",
          "name": "tokenId",
          "type": "uint256"
        }
      ],
      "name": "transferFrom",
      "outputs": [],
      "stateMutability": "nonpayable",
      "type": "function"
    },
    {
      "inputs": [
        {
          "internalType": "address",
          "name": "newOwner",
          "type": "address"
        }
      ],
      "name": "transferOwnership",
      "outputs": [],
      "stateMutability": "nonpayable",
      "type": "function"
    },
    {
      "inputs": [
        {
          "internalType": "uint256",
          "name": "tokenId",
          "type": "uint256"
        },
        {
          "internalType": "string",
          "name": "_tokenURI",
          "type": "string"
        }
      ],
      "name": "setTokenURI",
      "outputs": [],
      "stateMutability": "nonpayable",
      "type": "function"
    },
    {
      "inputs": [
        {
          "internalType": "uint256",
          "name": "tokenId",
          "type": "uint256"
        }
      ],
      "name": "tokenURI",
      "outputs": [
        {
          "internalType": "string",
          "name": "",
          "type": "string"
        }
      ],
      "stateMutability": "view",
      "type": "function",
      "constant": true
    },
    {
      "inputs": [
        {
          "internalType": "bytes4",
          "name": "interfaceId",
          "type": "bytes4"
        }
      ],
      "name": "supportsInterface",
      "outputs": [
        {
          "internalType": "bool",
          "name": "",
          "type": "bool"
        }
      ],
      "stateMutability": "view",
      "type": "function",
      "constant": true
    },
    {
      "inputs": [
        {
          "internalType": "address",
          "name": "to",
          "type": "address"
        },
        {
          "internalType": "uint256",
          "name": "tokenId",
          "type": "uint256"
        },
        {
          "internalType": "uint256",
          "name": "royaltyAmount",
          "type": "uint256"
        },
        {
          "internalType": "address",
          "name": "royaltyRecipient",
          "type": "address"
        }
      ],
      "name": "safeMint",
      "outputs": [],
      "stateMutability": "nonpayable",
      "type": "function"
    },
    {
      "inputs": [
        {
          "internalType": "address",
          "name": "to",
          "type": "address"
        },
        {
          "internalType": "uint256",
          "name": "tokenId",
          "type": "uint256"
        },
        {
          "internalType": "string",
          "name": "uri",
          "type": "string"
        },
        {
          "internalType": "uint256",
          "name": "royaltyAmount",
          "type": "uint256"
        },
        {
          "internalType": "address",
          "name": "royaltyRecipient",
          "type": "address"
        }
      ],
      "name": "safeMintAndSetUri",
      "outputs": [],
      "stateMutability": "nonpayable",
      "type": "function"
    }
  ],
  "bytecode": "0x60806040523480156200001157600080fd5b506040518060400160405280600781526020017f57617463686573000000000000000000000000000000000000000000000000008152506040518060400160405280600381526020017f54494b0000000000000000000000000000000000000000000000000000000000815250816000908051906020019062000096929190620001a6565b508060019080519060200190620000af929190620001a6565b505050620000d2620000c6620000d860201b60201c565b620000e060201b60201c565b620002bb565b600033905090565b6000600b60009054906101000a900473ffffffffffffffffffffffffffffffffffffffff16905081600b60006101000a81548173ffffffffffffffffffffffffffffffffffffffff021916908373ffffffffffffffffffffffffffffffffffffffff1602179055508173ffffffffffffffffffffffffffffffffffffffff168173ffffffffffffffffffffffffffffffffffffffff167f8be0079c531659141344cd1fd0a4f28419497f9722a3daafe3b4186f6b6457e060405160405180910390a35050565b828054620001b49062000285565b90600052602060002090601f016020900481019282620001d8576000855562000224565b82601f10620001f357805160ff191683800117855562000224565b8280016001018555821562000224579182015b828111156200022357825182559160200191906001019062000206565b5b50905062000233919062000237565b5090565b5b808211156200025257600081600090555060010162000238565b5090565b7f4e487b7100000000000000000000000000000000000000000000000000000000600052602260045260246000fd5b600060028204905060018216806200029e57607f821691505b60208210811415620002b557620002b462000256565b5b50919050565b613e3680620002cb6000396000f3fe608060405234801561001057600080fd5b506004361061014d5760003560e01c80636352211e116100c3578063a22cb4651161007c578063a22cb465146103b1578063b88d4fde146103cd578063c87b56dd146103e9578063d5bb3e7314610419578063e985e9c514610435578063f2fde38b146104655761014d565b80636352211e146102ef57806370a082311461031f578063715018a61461034f57806378a2d8a9146103595780638da5cb5b1461037557806395d89b41146103935761014d565b806318160ddd1161011557806318160ddd1461020857806323b872dd146102265780632a55205a146102425780632f745c591461027357806342842e0e146102a35780634f6ccce7146102bf5761014d565b806301ffc9a71461015257806306fdde0314610182578063081812fc146101a0578063095ea7b3146101d0578063162094c4146101ec575b600080fd5b61016c6004803603810190610167919061271a565b610481565b6040516101799190612762565b60405180910390f35b61018a610493565b6040516101979190612816565b60405180910390f35b6101ba60048036038101906101b5919061286e565b610525565b6040516101c791906128dc565b60405180910390f35b6101ea60048036038101906101e59190612923565b6105aa565b005b61020660048036038101906102019190612a98565b6106c2565b005b61021061074c565b60405161021d9190612b03565b60405180910390f35b610240600480360381019061023b9190612b1e565b610759565b005b61025c60048036038101906102579190612b71565b6107b9565b60405161026a929190612bb1565b60405180910390f35b61028d60048036038101906102889190612923565b61088a565b60405161029a9190612b03565b60405180910390f35b6102bd60048036038101906102b89190612b1e565b61092f565b005b6102d960048036038101906102d4919061286e565b61094f565b6040516102e69190612b03565b60405180910390f35b6103096004803603810190610304919061286e565b6109c0565b60405161031691906128dc565b60405180910390f35b61033960048036038101906103349190612bda565b610a72565b6040516103469190612b03565b60405180910390f35b610357610b2a565b005b610373600480360381019061036e9190612c07565b610bb2565b005b61037d610c49565b60405161038a91906128dc565b60405180910390f35b61039b610c73565b6040516103a89190612816565b60405180910390f35b6103cb60048036038101906103c69190612c9a565b610d05565b005b6103e760048036038101906103e29190612d7b565b610d1b565b005b61040360048036038101906103fe919061286e565b610d7d565b6040516104109190612816565b60405180910390f35b610433600480360381019061042e9190612dfe565b610d8f565b005b61044f600480360381019061044a9190612e95565b610e31565b60405161045c9190612762565b60405180910390f35b61047f600480360381019061047a9190612bda565b610ec5565b005b600061048c82610fbd565b9050919050565b6060600080546104a290612f04565b80601f01602080910402602001604051908101604052809291908181526020018280546104ce90612f04565b801561051b5780601f106104f05761010080835404028352916020019161051b565b820191906000526020600020905b8154815290600101906020018083116104fe57829003601f168201915b5050505050905090565b600061053082611037565b61056f576040517f08c379a000000000000000000000000000000000000000000000000000000000815260040161056690612fa8565b60405180910390fd5b6004600083815260200190815260200160002060009054906101000a900473ffffffffffffffffffffffffffffffffffffffff169050919050565b60006105b5826109c0565b90508073ffffffffffffffffffffffffffffffffffffffff168373ffffffffffffffffffffffffffffffffffffffff161415610626576040517f08c379a000000000000000000000000000000000000000000000000000000000815260040161061d9061303a565b60405180910390fd5b8073ffffffffffffffffffffffffffffffffffffffff166106456110a3565b73ffffffffffffffffffffffffffffffffffffffff16148061067457506106738161066e6110a3565b610e31565b5b6106b3576040517f08c379a00000000000000000000000000000000000000000000000000000000081526004016106aa906130cc565b60405180910390fd5b6106bd83836110ab565b505050565b6106ca6110a3565b73ffffffffffffffffffffffffffffffffffffffff166106e8610c49565b73ffffffffffffffffffffffffffffffffffffffff161461073e576040517f08c379a000000000000000000000000000000000000000000000000000000000815260040161073590613138565b60405180910390fd5b6107488282611164565b5050565b6000600980549050905090565b61076a6107646110a3565b826111d8565b6107a9576040517f08c379a00000000000000000000000000000000000000000000000000000000081526004016107a0906131ca565b60405180910390fd5b6107b48383836112b6565b505050565b6000806000600c60008681526020019081526020016000206040518060400160405290816000820160009054906101000a900473ffffffffffffffffffffffffffffffffffffffff1673ffffffffffffffffffffffffffffffffffffffff1673ffffffffffffffffffffffffffffffffffffffff1681526020016000820160149054906101000a900462ffffff1662ffffff1662ffffff1681525050905080600001519250612710816020015162ffffff16856108769190613219565b61088091906132a2565b9150509250929050565b600061089583610a72565b82106108d6576040517f08c379a00000000000000000000000000000000000000000000000000000000081526004016108cd90613345565b60405180910390fd5b600760008473ffffffffffffffffffffffffffffffffffffffff1673ffffffffffffffffffffffffffffffffffffffff168152602001908152602001600020600083815260200190815260200160002054905092915050565b61094a83838360405180602001604052806000815250610d1b565b505050565b600061095961074c565b821061099a576040517f08c379a0000000000000000000000000000000000000000000000000000000008152600401610991906133d7565b60405180910390fd5b600982815481106109ae576109ad6133f7565b5b90600052602060002001549050919050565b6000806002600084815260200190815260200160002060009054906101000a900473ffffffffffffffffffffffffffffffffffffffff169050600073ffffffffffffffffffffffffffffffffffffffff168173ffffffffffffffffffffffffffffffffffffffff161415610a69576040517f08c379a0000000000000000000000000000000000000000000000000000000008152600401610a6090613498565b60405180910390fd5b80915050919050565b60008073ffffffffffffffffffffffffffffffffffffffff168273ffffffffffffffffffffffffffffffffffffffff161415610ae3576040517f08c379a0000000000000000000000000000000000000000000000000000000008152600401610ada9061352a565b60405180910390fd5b600360008373ffffffffffffffffffffffffffffffffffffffff1673ffffffffffffffffffffffffffffffffffffffff168152602001908152602001600020549050919050565b610b326110a3565b73ffffffffffffffffffffffffffffffffffffffff16610b50610c49565b73ffffffffffffffffffffffffffffffffffffffff1614610ba6576040517f08c379a0000000000000000000000000000000000000000000000000000000008152600401610b9d90613138565b60405180910390fd5b610bb06000611512565b565b610bba6110a3565b73ffffffffffffffffffffffffffffffffffffffff16610bd8610c49565b73ffffffffffffffffffffffffffffffffffffffff1614610c2e576040517f08c379a0000000000000000000000000000000000000000000000000000000008152600401610c2590613138565b60405180910390fd5b610c3884846115d8565b610c438382846115f6565b50505050565b6000600b60009054906101000a900473ffffffffffffffffffffffffffffffffffffffff16905090565b606060018054610c8290612f04565b80601f0160208091040260200160405190810160405280929190818152602001828054610cae90612f04565b8015610cfb5780601f10610cd057610100808354040283529160200191610cfb565b820191906000526020600020905b815481529060010190602001808311610cde57829003601f168201915b5050505050905090565b610d17610d106110a3565b83836116f2565b5050565b610d2c610d266110a3565b836111d8565b610d6b576040517f08c379a0000000000000000000000000000000000000000000000000000000008152600401610d62906131ca565b60405180910390fd5b610d778484848461185f565b50505050565b6060610d88826118bb565b9050919050565b610d976110a3565b73ffffffffffffffffffffffffffffffffffffffff16610db5610c49565b73ffffffffffffffffffffffffffffffffffffffff1614610e0b576040517f08c379a0000000000000000000000000000000000000000000000000000000008152600401610e0290613138565b60405180910390fd5b610e1585856115d8565b610e1f8484611164565b610e2a8482846115f6565b5050505050565b6000600560008473ffffffffffffffffffffffffffffffffffffffff1673ffffffffffffffffffffffffffffffffffffffff16815260200190815260200160002060008373ffffffffffffffffffffffffffffffffffffffff1673ffffffffffffffffffffffffffffffffffffffff16815260200190815260200160002060009054906101000a900460ff16905092915050565b610ecd6110a3565b73ffffffffffffffffffffffffffffffffffffffff16610eeb610c49565b73ffffffffffffffffffffffffffffffffffffffff1614610f41576040517f08c379a0000000000000000000000000000000000000000000000000000000008152600401610f3890613138565b60405180910390fd5b600073ffffffffffffffffffffffffffffffffffffffff168173ffffffffffffffffffffffffffffffffffffffff161415610fb1576040517f08c379a0000000000000000000000000000000000000000000000000000000008152600401610fa8906135bc565b60405180910390fd5b610fba81611512565b50565b60007f2a55205a000000000000000000000000000000000000000000000000000000007bffffffffffffffffffffffffffffffffffffffffffffffffffffffff1916827bffffffffffffffffffffffffffffffffffffffffffffffffffffffff19161480611030575061102f82611a0d565b5b9050919050565b60008073ffffffffffffffffffffffffffffffffffffffff166002600084815260200190815260200160002060009054906101000a900473ffffffffffffffffffffffffffffffffffffffff1673ffffffffffffffffffffffffffffffffffffffff1614159050919050565b600033905090565b816004600083815260200190815260200160002060006101000a81548173ffffffffffffffffffffffffffffffffffffffff021916908373ffffffffffffffffffffffffffffffffffffffff160217905550808273ffffffffffffffffffffffffffffffffffffffff1661111e836109c0565b73ffffffffffffffffffffffffffffffffffffffff167f8c5be1e5ebec7d5bd14f71427d1e84f3dd0314c0f7b2291e5b200ac8c7c3b92560405160405180910390a45050565b61116d82611037565b6111ac576040517f08c379a00000000000000000000000000000000000000000000000000000000081526004016111a39061364e565b60405180910390fd5b806006600084815260200190815260200160002090805190602001906111d392919061260b565b505050565b60006111e382611037565b611222576040517f08c379a0000000000000000000000000000000000000000000000000000000008152600401611219906136e0565b60405180910390fd5b600061122d836109c0565b90508073ffffffffffffffffffffffffffffffffffffffff168473ffffffffffffffffffffffffffffffffffffffff16148061129c57508373ffffffffffffffffffffffffffffffffffffffff1661128484610525565b73ffffffffffffffffffffffffffffffffffffffff16145b806112ad57506112ac8185610e31565b5b91505092915050565b8273ffffffffffffffffffffffffffffffffffffffff166112d6826109c0565b73ffffffffffffffffffffffffffffffffffffffff161461132c576040517f08c379a000000000000000000000000000000000000000000000000000000000815260040161132390613772565b60405180910390fd5b600073ffffffffffffffffffffffffffffffffffffffff168273ffffffffffffffffffffffffffffffffffffffff16141561139c576040517f08c379a000000000000000000000000000000000000000000000000000000000815260040161139390613804565b60405180910390fd5b6113a7838383611a87565b6113b26000826110ab565b6001600360008573ffffffffffffffffffffffffffffffffffffffff1673ffffffffffffffffffffffffffffffffffffffff16815260200190815260200160002060008282546114029190613824565b925050819055506001600360008473ffffffffffffffffffffffffffffffffffffffff1673ffffffffffffffffffffffffffffffffffffffff16815260200190815260200160002060008282546114599190613858565b92505081905550816002600083815260200190815260200160002060006101000a81548173ffffffffffffffffffffffffffffffffffffffff021916908373ffffffffffffffffffffffffffffffffffffffff160217905550808273ffffffffffffffffffffffffffffffffffffffff168473ffffffffffffffffffffffffffffffffffffffff167fddf252ad1be2c89b69c2b068fc378daa952ba7f163c4a11628f55a4df523b3ef60405160405180910390a4505050565b6000600b60009054906101000a900473ffffffffffffffffffffffffffffffffffffffff16905081600b60006101000a81548173ffffffffffffffffffffffffffffffffffffffff021916908373ffffffffffffffffffffffffffffffffffffffff1602179055508173ffffffffffffffffffffffffffffffffffffffff168173ffffffffffffffffffffffffffffffffffffffff167f8be0079c531659141344cd1fd0a4f28419497f9722a3daafe3b4186f6b6457e060405160405180910390a35050565b6115f2828260405180602001604052806000815250611a97565b5050565b61271081111561163b576040517f08c379a0000000000000000000000000000000000000000000000000000000008152600401611632906138fa565b60405180910390fd5b60405180604001604052808373ffffffffffffffffffffffffffffffffffffffff1681526020018262ffffff16815250600c600085815260200190815260200160002060008201518160000160006101000a81548173ffffffffffffffffffffffffffffffffffffffff021916908373ffffffffffffffffffffffffffffffffffffffff16021790555060208201518160000160146101000a81548162ffffff021916908362ffffff160217905550905050505050565b8173ffffffffffffffffffffffffffffffffffffffff168373ffffffffffffffffffffffffffffffffffffffff161415611761576040517f08c379a000000000000000000000000000000000000000000000000000000000815260040161175890613966565b60405180910390fd5b80600560008573ffffffffffffffffffffffffffffffffffffffff1673ffffffffffffffffffffffffffffffffffffffff16815260200190815260200160002060008473ffffffffffffffffffffffffffffffffffffffff1673ffffffffffffffffffffffffffffffffffffffff16815260200190815260200160002060006101000a81548160ff0219169083151502179055508173ffffffffffffffffffffffffffffffffffffffff168373ffffffffffffffffffffffffffffffffffffffff167f17307eab39ab6107e8899845ad3d59bd9653f200f220920489ca2b5937696c31836040516118529190612762565b60405180910390a3505050565b61186a8484846112b6565b61187684848484611af2565b6118b5576040517f08c379a00000000000000000000000000000000000000000000000000000000081526004016118ac906139f8565b60405180910390fd5b50505050565b60606118c682611037565b611905576040517f08c379a00000000000000000000000000000000000000000000000000000000081526004016118fc90613a8a565b60405180910390fd5b600060066000848152602001908152602001600020805461192590612f04565b80601f016020809104026020016040519081016040528092919081815260200182805461195190612f04565b801561199e5780601f106119735761010080835404028352916020019161199e565b820191906000526020600020905b81548152906001019060200180831161198157829003601f168201915b5050505050905060006119af611c7a565b90506000815114156119c5578192505050611a08565b6000825111156119fa5780826040516020016119e2929190613ae6565b60405160208183030381529060405292505050611a08565b611a0384611cb7565b925050505b919050565b60007f780e9d63000000000000000000000000000000000000000000000000000000007bffffffffffffffffffffffffffffffffffffffffffffffffffffffff1916827bffffffffffffffffffffffffffffffffffffffffffffffffffffffff19161480611a805750611a7f82611d5e565b5b9050919050565b611a92838383611e40565b505050565b611aa18383611f54565b611aae6000848484611af2565b611aed576040517f08c379a0000000000000000000000000000000000000000000000000000000008152600401611ae4906139f8565b60405180910390fd5b505050565b6000611b138473ffffffffffffffffffffffffffffffffffffffff16612122565b15611c6d578373ffffffffffffffffffffffffffffffffffffffff1663150b7a02611b3c6110a3565b8786866040518563ffffffff1660e01b8152600401611b5e9493929190613b5f565b6020604051808303816000875af1925050508015611b9a57506040513d601f19601f82011682018060405250810190611b979190613bc0565b60015b611c1d573d8060008114611bca576040519150601f19603f3d011682016040523d82523d6000602084013e611bcf565b606091505b50600081511415611c15576040517f08c379a0000000000000000000000000000000000000000000000000000000008152600401611c0c906139f8565b60405180910390fd5b805181602001fd5b63150b7a0260e01b7bffffffffffffffffffffffffffffffffffffffffffffffffffffffff1916817bffffffffffffffffffffffffffffffffffffffffffffffffffffffff191614915050611c72565b600190505b949350505050565b60606040518060400160405280601581526020017f68747470733a2f2f697066732e696f2f697066732f0000000000000000000000815250905090565b6060611cc282611037565b611d01576040517f08c379a0000000000000000000000000000000000000000000000000000000008152600401611cf890613c5f565b60405180910390fd5b6000611d0b611c7a565b90506000815111611d2b5760405180602001604052806000815250611d56565b80611d3584612135565b604051602001611d46929190613ae6565b6040516020818303038152906040525b915050919050565b60007f80ac58cd000000000000000000000000000000000000000000000000000000007bffffffffffffffffffffffffffffffffffffffffffffffffffffffff1916827bffffffffffffffffffffffffffffffffffffffffffffffffffffffff19161480611e2957507f5b5e139f000000000000000000000000000000000000000000000000000000007bffffffffffffffffffffffffffffffffffffffffffffffffffffffff1916827bffffffffffffffffffffffffffffffffffffffffffffffffffffffff1916145b80611e395750611e3882612296565b5b9050919050565b611e4b838383612300565b600073ffffffffffffffffffffffffffffffffffffffff168373ffffffffffffffffffffffffffffffffffffffff161415611e8e57611e8981612305565b611ecd565b8173ffffffffffffffffffffffffffffffffffffffff168373ffffffffffffffffffffffffffffffffffffffff1614611ecc57611ecb838261234e565b5b5b600073ffffffffffffffffffffffffffffffffffffffff168273ffffffffffffffffffffffffffffffffffffffff161415611f1057611f0b816124bb565b611f4f565b8273ffffffffffffffffffffffffffffffffffffffff168273ffffffffffffffffffffffffffffffffffffffff1614611f4e57611f4d828261258c565b5b5b505050565b600073ffffffffffffffffffffffffffffffffffffffff168273ffffffffffffffffffffffffffffffffffffffff161415611fc4576040517f08c379a0000000000000000000000000000000000000000000000000000000008152600401611fbb90613ccb565b60405180910390fd5b611fcd81611037565b1561200d576040517f08c379a000000000000000000000000000000000000000000000000000000000815260040161200490613d37565b60405180910390fd5b61201960008383611a87565b6001600360008473ffffffffffffffffffffffffffffffffffffffff1673ffffffffffffffffffffffffffffffffffffffff16815260200190815260200160002060008282546120699190613858565b92505081905550816002600083815260200190815260200160002060006101000a81548173ffffffffffffffffffffffffffffffffffffffff021916908373ffffffffffffffffffffffffffffffffffffffff160217905550808273ffffffffffffffffffffffffffffffffffffffff16600073ffffffffffffffffffffffffffffffffffffffff167fddf252ad1be2c89b69c2b068fc378daa952ba7f163c4a11628f55a4df523b3ef60405160405180910390a45050565b600080823b905060008111915050919050565b6060600082141561217d576040518060400160405280600181526020017f30000000000000000000000000000000000000000000000000000000000000008152509050612291565b600082905060005b600082146121af57808061219890613d57565b915050600a826121a891906132a2565b9150612185565b60008167ffffffffffffffff8111156121cb576121ca61296d565b5b6040519080825280601f01601f1916602001820160405280156121fd5781602001600182028036833780820191505090505b5090505b6000851461228a576001826122169190613824565b9150600a856122259190613da0565b60306122319190613858565b60f81b818381518110612247576122466133f7565b5b60200101907effffffffffffffffffffffffffffffffffffffffffffffffffffffffffffff1916908160001a905350600a8561228391906132a2565b9450612201565b8093505050505b919050565b60007f01ffc9a7000000000000000000000000000000000000000000000000000000007bffffffffffffffffffffffffffffffffffffffffffffffffffffffff1916827bffffffffffffffffffffffffffffffffffffffffffffffffffffffff1916149050919050565b505050565b600980549050600a600083815260200190815260200160002081905550600981908060018154018082558091505060019003906000526020600020016000909190919091505550565b6000600161235b84610a72565b6123659190613824565b905060006008600084815260200190815260200160002054905081811461244a576000600760008673ffffffffffffffffffffffffffffffffffffffff1673ffffffffffffffffffffffffffffffffffffffff168152602001908152602001600020600084815260200190815260200160002054905080600760008773ffffffffffffffffffffffffffffffffffffffff1673ffffffffffffffffffffffffffffffffffffffff168152602001908152602001600020600084815260200190815260200160002081905550816008600083815260200190815260200160002081905550505b6008600084815260200190815260200160002060009055600760008573ffffffffffffffffffffffffffffffffffffffff1673ffffffffffffffffffffffffffffffffffffffff16815260200190815260200160002060008381526020019081526020016000206000905550505050565b600060016009805490506124cf9190613824565b90506000600a60008481526020019081526020016000205490506000600983815481106124ff576124fe6133f7565b5b906000526020600020015490508060098381548110612521576125206133f7565b5b906000526020600020018190555081600a600083815260200190815260200160002081905550600a60008581526020019081526020016000206000905560098054806125705761256f613dd1565b5b6001900381819060005260206000200160009055905550505050565b600061259783610a72565b905081600760008573ffffffffffffffffffffffffffffffffffffffff1673ffffffffffffffffffffffffffffffffffffffff168152602001908152602001600020600083815260200190815260200160002081905550806008600084815260200190815260200160002081905550505050565b82805461261790612f04565b90600052602060002090601f0160209004810192826126395760008555612680565b82601f1061265257805160ff1916838001178555612680565b82800160010185558215612680579182015b8281111561267f578251825591602001919060010190612664565b5b50905061268d9190612691565b5090565b5b808211156126aa576000816000905550600101612692565b5090565b6000604051905090565b600080fd5b600080fd5b60007fffffffff0000000000000000000000000000000000000000000000000000000082169050919050565b6126f7816126c2565b811461270257600080fd5b50565b600081359050612714816126ee565b92915050565b6000602082840312156127305761272f6126b8565b5b600061273e84828501612705565b91505092915050565b60008115159050919050565b61275c81612747565b82525050565b60006020820190506127776000830184612753565b92915050565b600081519050919050565b600082825260208201905092915050565b60005b838110156127b757808201518184015260208101905061279c565b838111156127c6576000848401525b50505050565b6000601f19601f8301169050919050565b60006127e88261277d565b6127f28185612788565b9350612802818560208601612799565b61280b816127cc565b840191505092915050565b6000602082019050818103600083015261283081846127dd565b905092915050565b6000819050919050565b61284b81612838565b811461285657600080fd5b50565b60008135905061286881612842565b92915050565b600060208284031215612884576128836126b8565b5b600061289284828501612859565b91505092915050565b600073ffffffffffffffffffffffffffffffffffffffff82169050919050565b60006128c68261289b565b9050919050565b6128d6816128bb565b82525050565b60006020820190506128f160008301846128cd565b92915050565b612900816128bb565b811461290b57600080fd5b50565b60008135905061291d816128f7565b92915050565b6000806040838503121561293a576129396126b8565b5b60006129488582860161290e565b925050602061295985828601612859565b9150509250929050565b600080fd5b600080fd5b7f4e487b7100000000000000000000000000000000000000000000000000000000600052604160045260246000fd5b6129a5826127cc565b810181811067ffffffffffffffff821117156129c4576129c361296d565b5b80604052505050565b60006129d76126ae565b90506129e3828261299c565b919050565b600067ffffffffffffffff821115612a0357612a0261296d565b5b612a0c826127cc565b9050602081019050919050565b82818337600083830152505050565b6000612a3b612a36846129e8565b6129cd565b905082815260208101848484011115612a5757612a56612968565b5b612a62848285612a19565b509392505050565b600082601f830112612a7f57612a7e612963565b5b8135612a8f848260208601612a28565b91505092915050565b60008060408385031215612aaf57612aae6126b8565b5b6000612abd85828601612859565b925050602083013567ffffffffffffffff811115612ade57612add6126bd565b5b612aea85828601612a6a565b9150509250929050565b612afd81612838565b82525050565b6000602082019050612b186000830184612af4565b92915050565b600080600060608486031215612b3757612b366126b8565b5b6000612b458682870161290e565b9350506020612b568682870161290e565b9250506040612b6786828701612859565b9150509250925092565b60008060408385031215612b8857612b876126b8565b5b6000612b9685828601612859565b9250506020612ba785828601612859565b9150509250929050565b6000604082019050612bc660008301856128cd565b612bd36020830184612af4565b9392505050565b600060208284031215612bf057612bef6126b8565b5b6000612bfe8482850161290e565b91505092915050565b60008060008060808587031215612c2157612c206126b8565b5b6000612c2f8782880161290e565b9450506020612c4087828801612859565b9350506040612c5187828801612859565b9250506060612c628782880161290e565b91505092959194509250565b612c7781612747565b8114612c8257600080fd5b50565b600081359050612c9481612c6e565b92915050565b60008060408385031215612cb157612cb06126b8565b5b6000612cbf8582860161290e565b9250506020612cd085828601612c85565b9150509250929050565b600067ffffffffffffffff821115612cf557612cf461296d565b5b612cfe826127cc565b9050602081019050919050565b6000612d1e612d1984612cda565b6129cd565b905082815260208101848484011115612d3a57612d39612968565b5b612d45848285612a19565b509392505050565b600082601f830112612d6257612d61612963565b5b8135612d72848260208601612d0b565b91505092915050565b60008060008060808587031215612d9557612d946126b8565b5b6000612da38782880161290e565b9450506020612db48782880161290e565b9350506040612dc587828801612859565b925050606085013567ffffffffffffffff811115612de657612de56126bd565b5b612df287828801612d4d565b91505092959194509250565b600080600080600060a08688031215612e1a57612e196126b8565b5b6000612e288882890161290e565b9550506020612e3988828901612859565b945050604086013567ffffffffffffffff811115612e5a57612e596126bd565b5b612e6688828901612a6a565b9350506060612e7788828901612859565b9250506080612e888882890161290e565b9150509295509295909350565b60008060408385031215612eac57612eab6126b8565b5b6000612eba8582860161290e565b9250506020612ecb8582860161290e565b9150509250929050565b7f4e487b7100000000000000000000000000000000000000000000000000000000600052602260045260246000fd5b60006002820490506001821680612f1c57607f821691505b60208210811415612f3057612f2f612ed5565b5b50919050565b7f4552433732313a20617070726f76656420717565727920666f72206e6f6e657860008201527f697374656e7420746f6b656e0000000000000000000000000000000000000000602082015250565b6000612f92602c83612788565b9150612f9d82612f36565b604082019050919050565b60006020820190508181036000830152612fc181612f85565b9050919050565b7f4552433732313a20617070726f76616c20746f2063757272656e74206f776e6560008201527f7200000000000000000000000000000000000000000000000000000000000000602082015250565b6000613024602183612788565b915061302f82612fc8565b604082019050919050565b6000602082019050818103600083015261305381613017565b9050919050565b7f4552433732313a20617070726f76652063616c6c6572206973206e6f74206f7760008201527f6e6572206e6f7220617070726f76656420666f7220616c6c0000000000000000602082015250565b60006130b6603883612788565b91506130c18261305a565b604082019050919050565b600060208201905081810360008301526130e5816130a9565b9050919050565b7f4f776e61626c653a2063616c6c6572206973206e6f7420746865206f776e6572600082015250565b6000613122602083612788565b915061312d826130ec565b602082019050919050565b6000602082019050818103600083015261315181613115565b9050919050565b7f4552433732313a207472616e736665722063616c6c6572206973206e6f74206f60008201527f776e6572206e6f7220617070726f766564000000000000000000000000000000602082015250565b60006131b4603183612788565b91506131bf82613158565b604082019050919050565b600060208201905081810360008301526131e3816131a7565b9050919050565b7f4e487b7100000000000000000000000000000000000000000000000000000000600052601160045260246000fd5b600061322482612838565b915061322f83612838565b9250817fffffffffffffffffffffffffffffffffffffffffffffffffffffffffffffffff0483118215151615613268576132676131ea565b5b828202905092915050565b7f4e487b7100000000000000000000000000000000000000000000000000000000600052601260045260246000fd5b60006132ad82612838565b91506132b883612838565b9250826132c8576132c7613273565b5b828204905092915050565b7f455243373231456e756d657261626c653a206f776e657220696e646578206f7560008201527f74206f6620626f756e6473000000000000000000000000000000000000000000602082015250565b600061332f602b83612788565b915061333a826132d3565b604082019050919050565b6000602082019050818103600083015261335e81613322565b9050919050565b7f455243373231456e756d657261626c653a20676c6f62616c20696e646578206f60008201527f7574206f6620626f756e64730000000000000000000000000000000000000000602082015250565b60006133c1602c83612788565b91506133cc82613365565b604082019050919050565b600060208201905081810360008301526133f0816133b4565b9050919050565b7f4e487b7100000000000000000000000000000000000000000000000000000000600052603260045260246000fd5b7f4552433732313a206f776e657220717565727920666f72206e6f6e657869737460008201527f656e7420746f6b656e0000000000000000000000000000000000000000000000602082015250565b6000613482602983612788565b915061348d82613426565b604082019050919050565b600060208201905081810360008301526134b181613475565b9050919050565b7f4552433732313a2062616c616e636520717565727920666f7220746865207a6560008201527f726f206164647265737300000000000000000000000000000000000000000000602082015250565b6000613514602a83612788565b915061351f826134b8565b604082019050919050565b6000602082019050818103600083015261354381613507565b9050919050565b7f4f776e61626c653a206e6577206f776e657220697320746865207a65726f206160008201527f6464726573730000000000000000000000000000000000000000000000000000602082015250565b60006135a6602683612788565b91506135b18261354a565b604082019050919050565b600060208201905081810360008301526135d581613599565b9050919050565b7f45524337323155524953746f726167653a2055524920736574206f66206e6f6e60008201527f6578697374656e7420746f6b656e000000000000000000000000000000000000602082015250565b6000613638602e83612788565b9150613643826135dc565b604082019050919050565b600060208201905081810360008301526136678161362b565b9050919050565b7f4552433732313a206f70657261746f7220717565727920666f72206e6f6e657860008201527f697374656e7420746f6b656e0000000000000000000000000000000000000000602082015250565b60006136ca602c83612788565b91506136d58261366e565b604082019050919050565b600060208201905081810360008301526136f9816136bd565b9050919050565b7f4552433732313a207472616e73666572206f6620746f6b656e2074686174206960008201527f73206e6f74206f776e0000000000000000000000000000000000000000000000602082015250565b600061375c602983612788565b915061376782613700565b604082019050919050565b6000602082019050818103600083015261378b8161374f565b9050919050565b7f4552433732313a207472616e7366657220746f20746865207a65726f2061646460008201527f7265737300000000000000000000000000000000000000000000000000000000602082015250565b60006137ee602483612788565b91506137f982613792565b604082019050919050565b6000602082019050818103600083015261381d816137e1565b9050919050565b600061382f82612838565b915061383a83612838565b92508282101561384d5761384c6131ea565b5b828203905092915050565b600061386382612838565b915061386e83612838565b9250827fffffffffffffffffffffffffffffffffffffffffffffffffffffffffffffffff038211156138a3576138a26131ea565b5b828201905092915050565b7f45524332393831526f79616c746965733a20546f6f2068696768000000000000600082015250565b60006138e4601a83612788565b91506138ef826138ae565b602082019050919050565b60006020820190508181036000830152613913816138d7565b9050919050565b7f4552433732313a20617070726f766520746f2063616c6c657200000000000000600082015250565b6000613950601983612788565b915061395b8261391a565b602082019050919050565b6000602082019050818103600083015261397f81613943565b9050919050565b7f4552433732313a207472616e7366657220746f206e6f6e20455243373231526560008201527f63656976657220696d706c656d656e7465720000000000000000000000000000602082015250565b60006139e2603283612788565b91506139ed82613986565b604082019050919050565b60006020820190508181036000830152613a11816139d5565b9050919050565b7f45524337323155524953746f726167653a2055524920717565727920666f722060008201527f6e6f6e6578697374656e7420746f6b656e000000000000000000000000000000602082015250565b6000613a74603183612788565b9150613a7f82613a18565b604082019050919050565b60006020820190508181036000830152613aa381613a67565b9050919050565b600081905092915050565b6000613ac08261277d565b613aca8185613aaa565b9350613ada818560208601612799565b80840191505092915050565b6000613af28285613ab5565b9150613afe8284613ab5565b91508190509392505050565b600081519050919050565b600082825260208201905092915050565b6000613b3182613b0a565b613b3b8185613b15565b9350613b4b818560208601612799565b613b54816127cc565b840191505092915050565b6000608082019050613b7460008301876128cd565b613b8160208301866128cd565b613b8e6040830185612af4565b8181036060830152613ba08184613b26565b905095945050505050565b600081519050613bba816126ee565b92915050565b600060208284031215613bd657613bd56126b8565b5b6000613be484828501613bab565b91505092915050565b7f4552433732314d657461646174613a2055524920717565727920666f72206e6f60008201527f6e6578697374656e7420746f6b656e0000000000000000000000000000000000602082015250565b6000613c49602f83612788565b9150613c5482613bed565b604082019050919050565b60006020820190508181036000830152613c7881613c3c565b9050919050565b7f4552433732313a206d696e7420746f20746865207a65726f2061646472657373600082015250565b6000613cb5602083612788565b9150613cc082613c7f565b602082019050919050565b60006020820190508181036000830152613ce481613ca8565b9050919050565b7f4552433732313a20746f6b656e20616c7265616479206d696e74656400000000600082015250565b6000613d21601c83612788565b9150613d2c82613ceb565b602082019050919050565b60006020820190508181036000830152613d5081613d14565b9050919050565b6000613d6282612838565b91507fffffffffffffffffffffffffffffffffffffffffffffffffffffffffffffffff821415613d9557613d946131ea565b5b600182019050919050565b6000613dab82612838565b9150613db683612838565b925082613dc657613dc5613273565b5b828206905092915050565b7f4e487b7100000000000000000000000000000000000000000000000000000000600052603160045260246000fdfea264697066735822122005647180e033dd59b271880ae149adc1feeea2ade2cf8181644e8b74c556c09764736f6c634300080a0033",
  "immutableReferences": {},
  "source": "//SPDX-License-Identifier: MIT\r\n \r\npragma solidity ^0.8.10;\r\n\r\nimport \"@openzeppelin/contracts/token/ERC721/ERC721.sol\";\r\nimport \"@openzeppelin/contracts/token/ERC721/extensions/ERC721URIStorage.sol\";\r\nimport \"@openzeppelin/contracts/token/ERC721/extensions/ERC721Enumerable.sol\";\r\nimport \"@openzeppelin/contracts/access/Ownable.sol\";\r\nimport \"./Base/ERC2981PerToken.sol\";\r\n\r\ncontract WatchNFT is ERC721URIStorage, ERC721Enumerable, Ownable, ERC2981PerTokenRoyalties {\r\n\r\n    constructor() ERC721(\"Watches\", \"TIK\") {}\r\n\r\n    function _beforeTokenTransfer(address from, address to, uint256 tokenId)\r\n        internal\r\n        override(ERC721, ERC721Enumerable)\r\n    {\r\n        super._beforeTokenTransfer(from, to, tokenId);\r\n    }\r\n\r\n    function _burn(uint256 tokenId) internal override(ERC721, ERC721URIStorage) {\r\n        super._burn(tokenId);\r\n    }\r\n\r\n    function _baseURI() internal view override returns (string memory) {\r\n        return \"https://ipfs.io/ipfs/\";\r\n    }\r\n\r\n    function setTokenURI(uint256 tokenId, string memory _tokenURI) public onlyOwner {\r\n        super._setTokenURI(tokenId, _tokenURI);\r\n    }\r\n\r\n    function tokenURI(uint256 tokenId)\r\n        public\r\n        view\r\n        override(ERC721, ERC721URIStorage)\r\n        returns (string memory)\r\n    {\r\n        return super.tokenURI(tokenId);\r\n    }\r\n\r\n    function supportsInterface(bytes4 interfaceId)\r\n        public\r\n        view\r\n        override(ERC721, ERC721Enumerable, ERC2981Base)\r\n        returns (bool)\r\n    {\r\n        return super.supportsInterface(interfaceId);\r\n    }\r\n\r\n    function safeMint(address to, uint256 tokenId, uint256 royaltyAmount, address royaltyRecipient) public onlyOwner {\r\n        _safeMint(to, tokenId);\r\n        _setTokenRoyalty(tokenId, royaltyRecipient, royaltyAmount);\r\n    }\r\n\r\n    function safeMintAndSetUri(address to, uint tokenId, string memory uri, uint256 royaltyAmount, address royaltyRecipient) public onlyOwner {\r\n        _safeMint(to, tokenId);\r\n        _setTokenURI(tokenId, uri);\r\n        _setTokenRoyalty(tokenId, royaltyRecipient, royaltyAmount);\r\n    }\r\n\r\n}",
  "sourcePath": "D:\\MSDN Projects\\NFT Marketplace\\Truffle\\contracts\\WatchNFT.sol",
  "compiler": {
    "name": "solc",
    "version": "0.8.10+commit.fc410830.Emscripten.clang"
  },
  "schemaVersion": "3.4.3",
  "updatedAt": "2021-12-30T18:24:46.071Z",
  "networkType": "ethereum",
  "devdoc": {
    "kind": "dev",
    "methods": {
      "approve(address,uint256)": {
        "details": "See {IERC721-approve}."
      },
      "balanceOf(address)": {
        "details": "See {IERC721-balanceOf}."
      },
      "getApproved(uint256)": {
        "details": "See {IERC721-getApproved}."
      },
      "isApprovedForAll(address,address)": {
        "details": "See {IERC721-isApprovedForAll}."
      },
      "name()": {
        "details": "See {IERC721Metadata-name}."
      },
      "owner()": {
        "details": "Returns the address of the current owner."
      },
      "ownerOf(uint256)": {
        "details": "See {IERC721-ownerOf}."
      },
      "renounceOwnership()": {
        "details": "Leaves the contract without owner. It will not be possible to call `onlyOwner` functions anymore. Can only be called by the current owner. NOTE: Renouncing ownership will leave the contract without an owner, thereby removing any functionality that is only available to the owner."
      },
      "royaltyInfo(uint256,uint256)": {
        "params": {
          "_tokenId": "- the NFT asset queried for royalty information",
          "_value": "- the sale price of the NFT asset specified by _tokenId"
        },
        "returns": {
          "receiver": "- address of who should be sent the royalty payment",
          "royaltyAmount": "- the royalty payment amount for value sale price"
        }
      },
      "safeTransferFrom(address,address,uint256)": {
        "details": "See {IERC721-safeTransferFrom}."
      },
      "safeTransferFrom(address,address,uint256,bytes)": {
        "details": "See {IERC721-safeTransferFrom}."
      },
      "setApprovalForAll(address,bool)": {
        "details": "See {IERC721-setApprovalForAll}."
      },
      "symbol()": {
        "details": "See {IERC721Metadata-symbol}."
      },
      "tokenByIndex(uint256)": {
        "details": "See {IERC721Enumerable-tokenByIndex}."
      },
      "tokenOfOwnerByIndex(address,uint256)": {
        "details": "See {IERC721Enumerable-tokenOfOwnerByIndex}."
      },
      "totalSupply()": {
        "details": "See {IERC721Enumerable-totalSupply}."
      },
      "transferFrom(address,address,uint256)": {
        "details": "See {IERC721-transferFrom}."
      },
      "transferOwnership(address)": {
        "details": "Transfers ownership of the contract to a new account (`newOwner`). Can only be called by the current owner."
      }
    },
    "version": 1
  },
  "userdoc": {
    "kind": "user",
    "methods": {},
    "version": 1
  }
}